{
  "contractName": "Parking",
  "abi": [
    {
      "constant": true,
      "inputs": [
        {
          "name": "",
          "type": "uint256"
        }
      ],
      "name": "parkIDvalid",
      "outputs": [
        {
          "name": "",
          "type": "bool"
        }
      ],
      "payable": false,
      "stateMutability": "view",
      "type": "function",
      "signature": "0x31264114"
    },
    {
      "constant": true,
      "inputs": [
        {
          "name": "",
          "type": "address"
        }
      ],
      "name": "Admin",
      "outputs": [
        {
          "name": "",
          "type": "bool"
        }
      ],
      "payable": false,
      "stateMutability": "view",
      "type": "function",
      "signature": "0x33b005d0"
    },
    {
      "constant": true,
      "inputs": [
        {
          "name": "",
          "type": "uint256"
        }
      ],
      "name": "park_info",
      "outputs": [
        {
          "name": "Empty",
          "type": "uint256"
        },
        {
          "name": "Total",
          "type": "uint256"
        },
        {
          "name": "Price",
          "type": "uint256"
        },
        {
          "name": "Deposit",
          "type": "uint256"
        },
        {
          "name": "ParkAddress",
          "type": "address"
        }
      ],
      "payable": false,
      "stateMutability": "view",
      "type": "function",
      "signature": "0x54f1a93a"
    },
    {
      "constant": true,
      "inputs": [],
      "name": "ContractOwner",
      "outputs": [
        {
          "name": "",
          "type": "address"
        }
      ],
      "payable": false,
      "stateMutability": "view",
      "type": "function",
      "signature": "0x5a63fbc9"
    },
    {
      "constant": true,
      "inputs": [],
      "name": "ContractAddress",
      "outputs": [
        {
          "name": "",
          "type": "address"
        }
      ],
      "payable": false,
      "stateMutability": "view",
      "type": "function",
      "signature": "0x66d11c1a"
    },
    {
      "constant": true,
      "inputs": [],
      "name": "reservationID",
      "outputs": [
        {
          "name": "",
          "type": "uint256"
        }
      ],
      "payable": false,
      "stateMutability": "view",
      "type": "function",
      "signature": "0x9b02bcad"
    },
    {
      "constant": true,
      "inputs": [
        {
          "name": "",
          "type": "uint256"
        }
      ],
      "name": "reserve_info",
      "outputs": [
        {
          "name": "ParkID",
          "type": "uint256"
        },
        {
          "name": "SpaceID",
          "type": "uint256"
        },
        {
          "name": "SpaceHour",
          "type": "uint256"
        },
        {
          "name": "State",
          "type": "uint256"
        },
        {
          "name": "ReservedTime",
          "type": "uint256"
        },
        {
          "name": "User",
          "type": "address"
        }
      ],
      "payable": false,
      "stateMutability": "view",
      "type": "function",
      "signature": "0xcc5f89dd"
    },
    {
      "inputs": [],
      "payable": false,
      "stateMutability": "nonpayable",
      "type": "constructor",
      "signature": "constructor"
    },
    {
      "anonymous": false,
      "inputs": [
        {
          "indexed": false,
          "name": "_from",
          "type": "address"
        },
        {
          "indexed": false,
          "name": "_to",
          "type": "address"
        },
        {
          "indexed": false,
          "name": "_number",
          "type": "uint256"
        }
      ],
      "name": "transferEvent",
      "type": "event",
      "signature": "0x5d439cf3a1f6215b41908e5b0b300f39679a3ff1cc010691c1d4ec4d0e2a4ebb"
    },
    {
      "constant": false,
      "inputs": [
        {
          "name": "_right",
          "type": "bool"
        },
        {
          "name": "_addr",
          "type": "address"
        }
      ],
      "name": "UpdetAdmin",
      "outputs": [
        {
          "name": "",
          "type": "bool"
        }
      ],
      "payable": false,
      "stateMutability": "nonpayable",
      "type": "function",
      "signature": "0x1a254916"
    },
    {
      "constant": false,
      "inputs": [
        {
          "name": "_parkingID",
          "type": "uint256"
        },
        {
          "name": "_right",
          "type": "bool"
        },
        {
          "name": "_addr",
          "type": "address"
        }
      ],
      "name": "UpdetParkAdmin",
      "outputs": [
        {
          "name": "",
          "type": "bool"
        }
      ],
      "payable": false,
      "stateMutability": "nonpayable",
      "type": "function",
      "signature": "0xc9dd16b8"
    },
    {
      "constant": false,
      "inputs": [
        {
          "name": "_total",
          "type": "uint256"
        },
        {
          "name": "_parkingID",
          "type": "uint256"
        },
        {
          "name": "_price",
          "type": "uint256"
        },
        {
          "name": "_deposit",
          "type": "uint256"
        },
        {
          "name": "_parkingOwner",
          "type": "address"
        }
      ],
      "name": "ParkRegister",
      "outputs": [
        {
          "name": "",
          "type": "bool"
        }
      ],
      "payable": false,
      "stateMutability": "nonpayable",
      "type": "function",
      "signature": "0x9fc6ff47"
    },
    {
      "constant": false,
      "inputs": [
        {
          "name": "_parkingID",
          "type": "uint256"
        },
        {
          "name": "_total",
          "type": "uint256"
        },
        {
          "name": "_empty",
          "type": "uint256"
        },
        {
          "name": "_price",
          "type": "uint256"
        },
        {
          "name": "_spaceID",
          "type": "uint256"
        },
        {
          "name": "_deposit",
          "type": "uint256"
        },
        {
          "name": "_space_tatus",
          "type": "uint256"
        },
        {
          "name": "_reserve_id",
          "type": "uint256"
        }
      ],
      "name": "ChangeParkInfo",
      "outputs": [],
      "payable": false,
      "stateMutability": "nonpayable",
      "type": "function",
      "signature": "0x2d1661ae"
    },
    {
      "constant": true,
      "inputs": [
        {
          "name": "_parkingID",
          "type": "uint256"
        }
      ],
      "name": "GetParkInfo",
      "outputs": [
        {
          "name": "empty",
          "type": "uint256"
        },
        {
          "name": "total",
          "type": "uint256"
        },
        {
          "name": "space_status",
          "type": "uint256[]"
        },
        {
          "name": "reserve_id",
          "type": "uint256[]"
        },
        {
          "name": "price",
          "type": "uint256"
        },
        {
          "name": "deposit",
          "type": "uint256"
        }
      ],
      "payable": false,
      "stateMutability": "view",
      "type": "function",
      "signature": "0x1ea76455"
    },
    {
      "constant": false,
      "inputs": [
        {
          "name": "_parkingID",
          "type": "uint256"
        },
        {
          "name": "_spaceID",
          "type": "uint256"
        },
        {
          "name": "_status",
          "type": "uint256"
        }
      ],
      "name": "UpdateParkEmpty",
      "outputs": [],
      "payable": false,
      "stateMutability": "nonpayable",
      "type": "function",
      "signature": "0x6d101c8f"
    },
    {
      "constant": false,
      "inputs": [
        {
          "name": "_parkingID",
          "type": "uint256"
        },
        {
          "name": "_spaceID",
          "type": "uint256"
        },
        {
          "name": "_reserve_hour",
          "type": "uint256"
        }
      ],
      "name": "ParkReserve",
      "outputs": [
        {
          "name": "_reserveIds",
          "type": "uint256"
        }
      ],
      "payable": true,
      "stateMutability": "payable",
      "type": "function",
      "signature": "0x7fb66a1c"
    },
    {
      "constant": false,
      "inputs": [
        {
          "name": "_reserveID",
          "type": "uint256"
        },
        {
          "name": "_operator",
          "type": "uint256"
        }
      ],
      "name": "UpdateReserve",
      "outputs": [
        {
          "name": "",
          "type": "bool"
        },
        {
          "name": "check_time",
          "type": "uint256"
        }
      ],
      "payable": false,
      "stateMutability": "nonpayable",
      "type": "function",
      "signature": "0x00142bf0"
    },
    {
      "constant": false,
      "inputs": [
        {
          "name": "_parkingID",
          "type": "uint256"
        },
        {
          "name": "_price",
          "type": "uint256"
        }
      ],
      "name": "ParkPay",
      "outputs": [
        {
          "name": "",
          "type": "bool"
        }
      ],
      "payable": true,
      "stateMutability": "payable",
      "type": "function",
      "signature": "0xc9e8106e"
    },
    {
      "constant": false,
      "inputs": [
        {
          "name": "_reserveID",
          "type": "uint256"
        },
        {
          "name": "_time",
          "type": "uint256"
        }
      ],
      "name": "ChangeReservedTime",
      "outputs": [],
      "payable": false,
      "stateMutability": "nonpayable",
      "type": "function",
      "signature": "0x7d84902b"
    },
    {
      "constant": true,
      "inputs": [],
      "name": "getContractBalance",
      "outputs": [
        {
          "name": "",
          "type": "uint256"
        }
      ],
      "payable": false,
      "stateMutability": "view",
      "type": "function",
      "signature": "0x6f9fb98a"
    }
  ],
  "bytecode": "0x6080604052670de0b6b3a7640000600755610e1060085561a8c0600955610708600a5534801561002e57600080fd5b5033600460006101000a81548173ffffffffffffffffffffffffffffffffffffffff021916908373ffffffffffffffffffffffffffffffffffffffff16021790555030600560006101000a81548173ffffffffffffffffffffffffffffffffffffffff021916908373ffffffffffffffffffffffffffffffffffffffff160217905550600160066000600460009054906101000a900473ffffffffffffffffffffffffffffffffffffffff1673ffffffffffffffffffffffffffffffffffffffff1673ffffffffffffffffffffffffffffffffffffffff16815260200190815260200160002060006101000a81548160ff0219169083151502179055506000600381905550612c73806101426000396000f3fe6080604052600436106100fb576000357c0100000000000000000000000000000000000000000000000000000000900463ffffffff168062142bf0146101005780631a254916146101645780631ea76455146101d95780632d1661ae146102cd578063312641141461034f57806333b005d0146103a257806354f1a93a1461040b5780635a63fbc9146104a257806366d11c1a146104f95780636d101c8f146105505780636f9fb98a1461059f5780637d84902b146105ca5780637fb66a1c1461060f5780639b02bcad146106655780639fc6ff4714610690578063c9dd16b814610721578063c9e8106e146107a0578063cc5f89dd146107f0575b600080fd5b34801561010c57600080fd5b506101436004803603604081101561012357600080fd5b81019080803590602001909291908035906020019092919050505061088e565b60405180831515151581526020018281526020019250505060405180910390f35b34801561017057600080fd5b506101bf6004803603604081101561018757600080fd5b81019080803515159060200190929190803573ffffffffffffffffffffffffffffffffffffffff169060200190929190505050610e4c565b604051808215151515815260200191505060405180910390f35b3480156101e557600080fd5b50610212600480360360208110156101fc57600080fd5b8101908080359060200190929190505050611062565b604051808781526020018681526020018060200180602001858152602001848152602001838103835287818151815260200191508051906020019060200280838360005b83811015610271578082015181840152602081019050610256565b50505050905001838103825286818151815260200191508051906020019060200280838360005b838110156102b3578082015181840152602081019050610298565b505050509050019850505050505050505060405180910390f35b3480156102d957600080fd5b5061034d60048036036101008110156102f157600080fd5b810190808035906020019092919080359060200190929190803590602001909291908035906020019092919080359060200190929190803590602001909291908035906020019092919080359060200190929190505050611242565b005b34801561035b57600080fd5b506103886004803603602081101561037257600080fd5b81019080803590602001909291905050506115c4565b604051808215151515815260200191505060405180910390f35b3480156103ae57600080fd5b506103f1600480360360208110156103c557600080fd5b81019080803573ffffffffffffffffffffffffffffffffffffffff1690602001909291905050506115e4565b604051808215151515815260200191505060405180910390f35b34801561041757600080fd5b506104446004803603602081101561042e57600080fd5b8101908080359060200190929190505050611604565b604051808681526020018581526020018481526020018381526020018273ffffffffffffffffffffffffffffffffffffffff1673ffffffffffffffffffffffffffffffffffffffff1681526020019550505050505060405180910390f35b3480156104ae57600080fd5b506104b761165a565b604051808273ffffffffffffffffffffffffffffffffffffffff1673ffffffffffffffffffffffffffffffffffffffff16815260200191505060405180910390f35b34801561050557600080fd5b5061050e611680565b604051808273ffffffffffffffffffffffffffffffffffffffff1673ffffffffffffffffffffffffffffffffffffffff16815260200191505060405180910390f35b34801561055c57600080fd5b5061059d6004803603606081101561057357600080fd5b810190808035906020019092919080359060200190929190803590602001909291905050506116a6565b005b3480156105ab57600080fd5b506105b4611e07565b6040518082815260200191505060405180910390f35b3480156105d657600080fd5b5061060d600480360360408110156105ed57600080fd5b810190808035906020019092919080359060200190929190505050611e48565b005b61064f6004803603606081101561062557600080fd5b81019080803590602001909291908035906020019092919080359060200190929190505050611e67565b6040518082815260200191505060405180910390f35b34801561067157600080fd5b5061067a612389565b6040518082815260200191505060405180910390f35b34801561069c57600080fd5b50610707600480360360a08110156106b357600080fd5b8101908080359060200190929190803590602001909291908035906020019092919080359060200190929190803573ffffffffffffffffffffffffffffffffffffffff16906020019092919050505061238f565b604051808215151515815260200191505060405180910390f35b34801561072d57600080fd5b506107866004803603606081101561074457600080fd5b8101908080359060200190929190803515159060200190929190803573ffffffffffffffffffffffffffffffffffffffff169060200190929190505050612855565b604051808215151515815260200191505060405180910390f35b6107d6600480360360408110156107b657600080fd5b8101908080359060200190929190803590602001909291905050506129a2565b604051808215151515815260200191505060405180910390f35b3480156107fc57600080fd5b506108296004803603602081101561081357600080fd5b8101908080359060200190929190505050612b79565b604051808781526020018681526020018581526020018481526020018381526020018273ffffffffffffffffffffffffffffffffffffffff1673ffffffffffffffffffffffffffffffffffffffff168152602001965050505050505060405180910390f35b600080600060085460016000878152602001908152602001600020600201540260016000878152602001908152602001600020600401540190503373ffffffffffffffffffffffffffffffffffffffff166001600087815260200190815260200160002060050160009054906101000a900473ffffffffffffffffffffffffffffffffffffffff1673ffffffffffffffffffffffffffffffffffffffff161415156109a1576040517f08c379a00000000000000000000000000000000000000000000000000000000081526004018080602001828103825260188152602001807f796f752068617665206e6f207265736572766174696f6e2e000000000000000081525060200191505060405180910390fd5b428110151515610a19576040517f08c379a000000000000000000000000000000000000000000000000000000000815260040180806020018281038252601d8152602001807f796f7572207265736572766174696f6e2069732074696d65206f75742e00000081525060200191505060405180910390fd5b600180600087815260200190815260200160002060030154141515610acc576040517f08c379a000000000000000000000000000000000000000000000000000000000815260040180806020018281038252602e8152602001807f6f6e6c79207265736572766174696f6e2073746174652063616e2063616e636581526020017f6c206f7220757365207061726b2e00000000000000000000000000000000000081525060400191505060405180910390fd5b6000841480610adb5750600184145b1515610b4f576040517f08c379a000000000000000000000000000000000000000000000000000000000815260040180806020018281038252601a8152602001807f303a20666f722063616e63656c2c20313a20666f72207061726b00000000000081525060200191505060405180910390fd5b600060016000878152602001908152602001600020600001549050600060016000888152602001908152602001600020600101549050600080600084815260200190815260200160002060030182815481101515610ba957fe5b90600052602060002001819055504283101515610e3b576000861415610c3357600954428403111515610c2e5760008083815260200190815260200160002060000160008154809291906001019190505550600080600084815260200190815260200160002060020182815481101515610c1f57fe5b90600052602060002001819055505b610cec565b6001861415610ceb57600a5442840311151515610cb8576040517f08c379a000000000000000000000000000000000000000000000000000000000815260040180806020018281038252601a8152602001807f6e6f7420796f7572207265736572766174696f6e2074696d652e00000000000081525060200191505060405180910390fd5b600160008084815260200190815260200160002060020182815481101515610cdc57fe5b90600052602060002001819055505b5b600060016000898152602001908152602001600020600301819055503373ffffffffffffffffffffffffffffffffffffffff166108fc600080858152602001908152602001600020600501549081150290604051600060405180830381858888f19350505050158015610d63573d6000803e3d6000fd5b507f5d439cf3a1f6215b41908e5b0b300f39679a3ff1cc010691c1d4ec4d0e2a4ebb600560009054906101000a900473ffffffffffffffffffffffffffffffffffffffff163360008086815260200190815260200160002060050154604051808473ffffffffffffffffffffffffffffffffffffffff1673ffffffffffffffffffffffffffffffffffffffff1681526020018373ffffffffffffffffffffffffffffffffffffffff1673ffffffffffffffffffffffffffffffffffffffff168152602001828152602001935050505060405180910390a15b600183945094505050509250929050565b6000600460009054906101000a900473ffffffffffffffffffffffffffffffffffffffff1673ffffffffffffffffffffffffffffffffffffffff163373ffffffffffffffffffffffffffffffffffffffff16141515610f39576040517f08c379a00000000000000000000000000000000000000000000000000000000081526004018080602001828103825260248152602001807f6f6e6c7920636f6e74726163744f776e6572206861766520726967687420746f81526020017f2069742e0000000000000000000000000000000000000000000000000000000081525060400191505060405180910390fd5b60011515600660003373ffffffffffffffffffffffffffffffffffffffff1673ffffffffffffffffffffffffffffffffffffffff16815260200190815260200160002060009054906101000a900460ff161515141515611001576040517f08c379a000000000000000000000000000000000000000000000000000000000815260040180806020018281038252601c8152602001807f596f7520617265206e6f74205b4169725061726b2041646d696e5d2e0000000081525060200191505060405180910390fd5b82600660008473ffffffffffffffffffffffffffffffffffffffff1673ffffffffffffffffffffffffffffffffffffffff16815260200190815260200160002060006101000a81548160ff0219169083151502179055506001905092915050565b600080606080600080600115156002600089815260200190815260200160002060009054906101000a900460ff161515141515611107576040517f08c379a00000000000000000000000000000000000000000000000000000000081526004018080602001828103825260188152602001807f54686973205061726b20494420697320696e76616c69642e000000000000000081525060200191505060405180910390fd5b60008088815260200190815260200160002060000154600080898152602001908152602001600020600101546000808a81526020019081526020016000206002016000808b81526020019081526020016000206003016000808c8152602001908152602001600020600401546000808d815260200190815260200160002060050154838054806020026020016040519081016040528092919081815260200182805480156111d457602002820191906000526020600020905b8154815260200190600101908083116111c0575b505050505093508280548060200260200160405190810160405280929190818152602001828054801561122657602002820191906000526020600020905b815481526020019060010190808311611212575b5050505050925095509550955095509550955091939550919395565b8760008082815260200190815260200160002060060160003373ffffffffffffffffffffffffffffffffffffffff1673ffffffffffffffffffffffffffffffffffffffff16815260200190815260200160002060009054906101000a900460ff161515611317576040517f08c379a000000000000000000000000000000000000000000000000000000000815260040180806020018281038252601b8152602001807f596f7520617265206e6f74205061726b2041646d696e6973746f72000000000081525060200191505060405180910390fd5b60011515600260008b815260200190815260200160002060009054906101000a900460ff1615151415156113b3576040517f08c379a00000000000000000000000000000000000000000000000000000000081526004018080602001828103825260188152602001807f54686973205061726b20494420697320696e76616c69642e000000000000000081525060200191505060405180910390fd5b60016000808b8152602001908152602001600020600201868154811015156113d757fe5b9060005260206000200154111515611457576040517f08c379a00000000000000000000000000000000000000000000000000000000081526004018080602001828103825260178152602001807f6f6e6c79203020616e64203120666f722073746174652e00000000000000000081525060200191505060405180910390fd5b846000808b815260200190815260200160002060020180549050101515156114e7576040517f08c379a00000000000000000000000000000000000000000000000000000000081526004018080602001828103825260198152602001807f5f73706163654944206973206f7574206f662072616e67652e0000000000000081525060200191505060405180910390fd5b876000808b81526020019081526020016000206001018190555060075486026000808b81526020019081526020016000206004018190555060075484026000808b815260200190815260200160002060050181905550866000808b815260200190815260200160002060000181905550816000808b81526020019081526020016000206003018681548110151561157a57fe5b9060005260206000200181905550826000808b8152602001908152602001600020600201868154811015156115ab57fe5b9060005260206000200181905550505050505050505050565b60026020528060005260406000206000915054906101000a900460ff1681565b60066020528060005260406000206000915054906101000a900460ff1681565b60006020528060005260406000206000915090508060000154908060010154908060040154908060050154908060070160009054906101000a900473ffffffffffffffffffffffffffffffffffffffff16905085565b600460009054906101000a900473ffffffffffffffffffffffffffffffffffffffff1681565b600560009054906101000a900473ffffffffffffffffffffffffffffffffffffffff1681565b8260008082815260200190815260200160002060060160003373ffffffffffffffffffffffffffffffffffffffff1673ffffffffffffffffffffffffffffffffffffffff16815260200190815260200160002060009054906101000a900460ff16151561177b576040517f08c379a000000000000000000000000000000000000000000000000000000000815260040180806020018281038252601b8152602001807f596f7520617265206e6f74205061726b2041646d696e6973746f72000000000081525060200191505060405180910390fd5b6000808581526020019081526020016000206002018381548110151561179d57fe5b9060005260206000200154821415151561181f576040517f08c379a000000000000000000000000000000000000000000000000000000000815260040180806020018281038252600e8152602001807f73746174652069732073616d652e00000000000000000000000000000000000081525060200191505060405180910390fd5b600115156002600086815260200190815260200160002060009054906101000a900460ff1615151415156118bb576040517f08c379a00000000000000000000000000000000000000000000000000000000081526004018080602001828103825260188152602001807f54686973205061726b20494420697320696e76616c69642e000000000000000081525060200191505060405180910390fd5b82600080868152602001908152602001600020600201805490501015151561194b576040517f08c379a00000000000000000000000000000000000000000000000000000000081526004018080602001828103825260198152602001807f5f73706163654944206973206f7574206f662072616e67652e0000000000000081525060200191505060405180910390fd5b60008214156119af5760008085815260200190815260200160002060000160008154809291906001019190505550816000808681526020019081526020016000206002018481548110151561199c57fe5b9060005260206000200181905550611e01565b6001821415611a145760008085815260200190815260200160002060000160008154809291906001900391905055508160008086815260200190815260200160002060020184815481101515611a0157fe5b9060005260206000200181905550611e00565b60008090505b60008086815260200190815260200160002060030180549050811015611dfe57600080600087815260200190815260200160002060030182815481101515611a5e57fe5b9060005260206000200154905060006008546001600084815260200190815260200160002060020154026001600084815260200190815260200160002060040154019050600080600089815260200190815260200160002060030184815481101515611ac657fe5b9060005260206000200154118015611af35750600180600084815260200190815260200160002060030154145b15611def57428110158015611b0b5750600954428203105b15611ba357600080600089815260200190815260200160002060020184815481101515611b3457fe5b90600052602060002001541415611b9e57600160008089815260200190815260200160002060020184815481101515611b6957fe5b906000526020600020018190555060008088815260200190815260200160002060000160008154809291906001900391905055505b611dee565b42811015611ded5760006001600084815260200190815260200160002060030181905550600080600089815260200190815260200160002060020184815481101515611beb57fe5b9060005260206000200181905550600080600089815260200190815260200160002060030184815481101515611c1d57fe5b90600052602060002001819055506000808881526020019081526020016000206000016000815480929190600101919050555060008088815260200190815260200160002060070160009054906101000a900473ffffffffffffffffffffffffffffffffffffffff1673ffffffffffffffffffffffffffffffffffffffff166108fc6000808a8152602001908152602001600020600501549081150290604051600060405180830381858888f19350505050158015611ce0573d6000803e3d6000fd5b507f5d439cf3a1f6215b41908e5b0b300f39679a3ff1cc010691c1d4ec4d0e2a4ebb600560009054906101000a900473ffffffffffffffffffffffffffffffffffffffff166000808a815260200190815260200160002060070160009054906101000a900473ffffffffffffffffffffffffffffffffffffffff166000808b815260200190815260200160002060050154604051808473ffffffffffffffffffffffffffffffffffffffff1673ffffffffffffffffffffffffffffffffffffffff1681526020018373ffffffffffffffffffffffffffffffffffffffff1673ffffffffffffffffffffffffffffffffffffffff168152602001828152602001935050505060405180910390a15b5b5b50508080600101915050611a1a565b505b5b50505050565b6000600560009054906101000a900473ffffffffffffffffffffffffffffffffffffffff1673ffffffffffffffffffffffffffffffffffffffff1631905090565b8060016000848152602001908152602001600020600401819055505050565b6000600115156002600086815260200190815260200160002060009054906101000a900460ff161515141515611f2b576040517f08c379a000000000000000000000000000000000000000000000000000000000815260040180806020018281038252602a8152602001807f5468697320494420697320696e76616c696420285061726b696e67206c6f742081526020017f6e6f742065786974292e0000000000000000000000000000000000000000000081525060400191505060405180910390fd5b600080600086815260200190815260200160002060030184815481101515611f4f57fe5b9060005260206000200154141515611ff5576040517f08c379a00000000000000000000000000000000000000000000000000000000081526004018080602001828103825260308152602001807f5265736572766174696f6e20657869742e2043686f736573206f74686572207081526020017f6c61636520746f20726573657276652e0000000000000000000000000000000081525060400191505060405180910390fd5b60008060008681526020019081526020016000206002018481548110151561201957fe5b9060005260206000200154141515612099576040517f08c379a00000000000000000000000000000000000000000000000000000000081526004018080602001828103825260188152602001807f6e6f7420656d7074792c2063616e7420726573657276652e000000000000000081525060200191505060405180910390fd5b6000808581526020019081526020016000206005015434141515612125576040517f08c379a00000000000000000000000000000000000000000000000000000000081526004018080602001828103825260138152602001807f6465706f736974206e6f7420656e6f7567682e0000000000000000000000000081525060200191505060405180910390fd5b6003600081548092919060010191905055506003546000808681526020019081526020016000206003018481548110151561215c57fe5b9060005260206000200181905550600954600854830210156121d15760016000808681526020019081526020016000206002018481548110151561219c57fe5b906000526020600020018190555060008085815260200190815260200160002060000160008154809291906001900391905055505b60c060405190810160405280858152602001848152602001838152602001600181526020014281526020013373ffffffffffffffffffffffffffffffffffffffff16815250600160006003548152602001908152602001600020600082015181600001556020820151816001015560408201518160020155606082015181600301556080820151816004015560a08201518160050160006101000a81548173ffffffffffffffffffffffffffffffffffffffff021916908373ffffffffffffffffffffffffffffffffffffffff1602179055509050507f5d439cf3a1f6215b41908e5b0b300f39679a3ff1cc010691c1d4ec4d0e2a4ebb33600560009054906101000a900473ffffffffffffffffffffffffffffffffffffffff1660008088815260200190815260200160002060050154604051808473ffffffffffffffffffffffffffffffffffffffff1673ffffffffffffffffffffffffffffffffffffffff1681526020018373ffffffffffffffffffffffffffffffffffffffff1673ffffffffffffffffffffffffffffffffffffffff168152602001828152602001935050505060405180910390a160035490509392505050565b60035481565b6000600460009054906101000a900473ffffffffffffffffffffffffffffffffffffffff1673ffffffffffffffffffffffffffffffffffffffff163373ffffffffffffffffffffffffffffffffffffffff1614151561247c576040517f08c379a00000000000000000000000000000000000000000000000000000000081526004018080602001828103825260248152602001807f6f6e6c7920636f6e74726163744f776e6572206861766520726967687420746f81526020017f2069742e0000000000000000000000000000000000000000000000000000000081525060400191505060405180910390fd5b60011515600660003373ffffffffffffffffffffffffffffffffffffffff1673ffffffffffffffffffffffffffffffffffffffff16815260200190815260200160002060009054906101000a900460ff161515141515612544576040517f08c379a000000000000000000000000000000000000000000000000000000000815260040180806020018281038252601c8152602001807f596f7520617265206e6f74205b4169725061726b2041646d696e5d2e0000000081525060200191505060405180910390fd5b600015156002600087815260200190815260200160002060009054906101000a900460ff1615151415156125e0576040517f08c379a00000000000000000000000000000000000000000000000000000000081526004018080602001828103825260158152602001807f5468697320494420616c726561647920757365642e000000000000000000000081525060200191505060405180910390fd5b60016002600087815260200190815260200160002060006101000a81548160ff0219169083151502179055506060808760405190808252806020026020018201604052801561263e5781602001602082028038833980820191505090505b509150876040519080825280602002602001820160405280156126705781602001602082028038833980820191505090505b50905060008090505b888110156126ca576000838281518110151561269157fe5b9060200190602002018181525050600082828151811015156126af57fe5b90602001906020020181815250508080600101915050612679565b50600160008089815260200190815260200160002060060160008673ffffffffffffffffffffffffffffffffffffffff1673ffffffffffffffffffffffffffffffffffffffff16815260200190815260200160002060006101000a81548160ff02191690831515021790555060e06040519081016040528089815260200189815260200183815260200182815260200160075488028152602001600754870281526020018573ffffffffffffffffffffffffffffffffffffffff16815250600080898152602001908152602001600020600082015181600001556020820151816001015560408201518160020190805190602001906127ca929190612bd5565b5060608201518160030190805190602001906127e7929190612bd5565b506080820151816004015560a0820151816005015560c08201518160070160006101000a81548173ffffffffffffffffffffffffffffffffffffffff021916908373ffffffffffffffffffffffffffffffffffffffff16021790555090505060019250505095945050505050565b60008360008082815260200190815260200160002060060160003373ffffffffffffffffffffffffffffffffffffffff1673ffffffffffffffffffffffffffffffffffffffff16815260200190815260200160002060009054906101000a900460ff16151561292c576040517f08c379a000000000000000000000000000000000000000000000000000000000815260040180806020018281038252601b8152602001807f596f7520617265206e6f74205061726b2041646d696e6973746f72000000000081525060200191505060405180910390fd5b8360008087815260200190815260200160002060060160008573ffffffffffffffffffffffffffffffffffffffff1673ffffffffffffffffffffffffffffffffffffffff16815260200190815260200160002060006101000a81548160ff02191690831515021790555060019150509392505050565b6000346007548302141515612a1f576040517f08c379a00000000000000000000000000000000000000000000000000000000081526004018080602001828103825260108152602001807f706179206e6f7420636f72726563742e0000000000000000000000000000000081525060200191505060405180910390fd5b60008084815260200190815260200160002060070160009054906101000a900473ffffffffffffffffffffffffffffffffffffffff1673ffffffffffffffffffffffffffffffffffffffff166108fc349081150290604051600060405180830381858888f19350505050158015612a9a573d6000803e3d6000fd5b507f5d439cf3a1f6215b41908e5b0b300f39679a3ff1cc010691c1d4ec4d0e2a4ebb3360008086815260200190815260200160002060070160009054906101000a900473ffffffffffffffffffffffffffffffffffffffff1634604051808473ffffffffffffffffffffffffffffffffffffffff1673ffffffffffffffffffffffffffffffffffffffff1681526020018373ffffffffffffffffffffffffffffffffffffffff1673ffffffffffffffffffffffffffffffffffffffff168152602001828152602001935050505060405180910390a16001905092915050565b60016020528060005260406000206000915090508060000154908060010154908060020154908060030154908060040154908060050160009054906101000a900473ffffffffffffffffffffffffffffffffffffffff16905086565b828054828255906000526020600020908101928215612c11579160200282015b82811115612c10578251825591602001919060010190612bf5565b5b509050612c1e9190612c22565b5090565b612c4491905b80821115612c40576000816000905550600101612c28565b5090565b9056fea165627a7a7230582030e3d2e153f6e7996b10131df3fe7de6135ebad94b40bfac9fc0be32f3ae5b8b0029",
  "source": "pragma solidity >=0.4.22 <0.6.0;\ncontract Parking {\n\n    struct ParkInfo {\n        uint Empty;     // empty number\n        uint Total;     // total number\n        uint [] SpaceState;   //0: empty | 1: occupation | other: reservationID\\\n        uint [] ReserveID;\n        uint Price; //\n        uint Deposit; // for Reservation\n        mapping (address => bool) ParkAdmin; // Park administor has right to change info\n        address payable ParkAddress; //receive wei\n    }\n\n    struct ReserveInfo {\n        uint ParkID; // which Park\n        uint SpaceID; // which Space\n        uint SpaceHour; // reservation for after i-th hour\n        uint State; // 0: release, 1: reserved\n        uint ReservedTime; // reservation time\n        address User;\n    }\n\n\n    //ParkInfo [] public parkinfo;\n    mapping(uint => ParkInfo) public park_info; //parkingID mapping to ParkInfo\n    mapping(uint => ReserveInfo) public reserve_info; //reservationID map to\n    mapping(uint => bool) public parkIDvalid; // check parkID registered\n    uint public reservationID;\n    address public ContractOwner;  //have right to add/cancel Admin\n    address public ContractAddress; // contract address for receiving wei\n    mapping (address => bool) public Admin; // 1: with right to change AirPark system\n\n    //for test parameter\n    uint eth2wei = 10**18;\n    uint time_unit = 60*60;\n    uint before_reservation_time = 12 hours;\n    uint valid_reservation_time = 30 minutes;\n\n    //transfer wei log\n    event transferEvent (address _from, address _to, uint _number);\n\n    //initialize BetContract Address & Owner\n    constructor () public {\n        ContractOwner = msg.sender;\n        ContractAddress = address(this);\n        Admin[ContractOwner] = true;\n        reservationID = 0;\n    }\n\n    modifier onlyContractOwner () {\n        require(msg.sender == ContractOwner, 'only contractOwner have right to it.');\n        _;\n    }\n\n    modifier onlyAdmin () {\n        require(Admin[msg.sender] == true, 'You are not [AirPark Admin].');\n        _;\n    }\n\n    modifier onlyParkAdmin (uint _parkId) {\n        require(park_info[_parkId].ParkAdmin[msg.sender], 'You are not Park Administor');\n        _;\n    }\n\n    //Give System Admin right\n    function UpdetAdmin (bool _right, address _addr) onlyContractOwner onlyAdmin public returns (bool) {\n        Admin[_addr] = _right;\n        return true;\n    }\n\n    //Give Park Admin right\n    function UpdetParkAdmin (uint _parkingID, bool _right, address _addr) onlyParkAdmin (_parkingID) public\n        returns (bool) {\n        park_info[_parkingID].ParkAdmin[_addr] = _right;\n        return true;\n    }\n\n    //Register Parking Info\n    function ParkRegister (uint _total, uint _parkingID, uint _price, uint _deposit,address payable _parkingOwner)\n        onlyContractOwner onlyAdmin public\n        returns (bool) {\n\n        require(parkIDvalid[_parkingID] == false, 'This ID already used.');\n        parkIDvalid[_parkingID] = true;\n        uint [] memory _status;\n        uint [] memory _reserve_id;\n        _status = new uint [] (_total);\n        _reserve_id = new uint [] (_total);\n\n        for (uint i = 0; i < _total; i++ ) {\n            _status[i] = 0;\n            _reserve_id[i] = 0;\n        }\n\n\n        park_info[_parkingID].ParkAdmin[_parkingOwner] = true;\n\n        park_info[_parkingID] = ParkInfo(_total, _total, _status, _reserve_id, _price*eth2wei, _deposit*eth2wei, _parkingOwner);\n        return true;\n    }\n\n    //only Park administro or contract Owner can change Park Info\n    function ChangeParkInfo (uint _parkingID,\n                             uint _total,\n                             uint _empty,\n                             uint _price,\n                             uint _spaceID,\n                             uint _deposit,\n                             uint _space_tatus,\n                             uint _reserve_id)\n        onlyParkAdmin (_parkingID) public {\n\n        require(parkIDvalid[_parkingID] == true, 'This Park ID is invalid.');\n        require(park_info[_parkingID].SpaceState[_spaceID] > 1, 'only 0 and 1 for state.');\n        require(park_info[_parkingID].SpaceState.length >= _spaceID, '_spaceID is out of range.');\n\n        park_info[_parkingID].Total = _total;\n        park_info[_parkingID].Price = _price * eth2wei;\n        park_info[_parkingID].Deposit = _deposit*eth2wei;\n        park_info[_parkingID].Empty = _empty;\n        park_info[_parkingID].ReserveID[_spaceID] = _reserve_id;\n        park_info[_parkingID].SpaceState[_spaceID] = _space_tatus;\n\n    }\n\n    //get Parking information (customer, read only, free)\n    function GetParkInfo (uint _parkingID) public view returns  (uint empty,\n                                                                 uint total,\n                                                                 uint [] memory space_status,\n                                                                 uint [] memory reserve_id,\n                                                                 uint price,\n                                                                 uint deposit) {\n\n        require(parkIDvalid[_parkingID] == true, 'This Park ID is invalid.');\n\n        return (park_info[_parkingID].Empty,\n                park_info[_parkingID].Total,\n                park_info[_parkingID].SpaceState,\n                park_info[_parkingID].ReserveID,\n                park_info[_parkingID].Price,\n                park_info[_parkingID].Deposit);\n    }\n\n    //update ParkInfo for ParkAdmin\n    //change space empty/occupation in time\n    //update reservation status\n\n    function UpdateParkEmpty (uint _parkingID, uint _spaceID, uint _status) public onlyParkAdmin(_parkingID) {\n        //_status: 0 empty, 1 occupation, 2 update for reservation\n        require(_status != park_info[_parkingID].SpaceState[_spaceID], 'state is same.');\n        require(parkIDvalid[_parkingID] == true, 'This Park ID is invalid.');\n        require(park_info[_parkingID].SpaceState.length >= _spaceID, '_spaceID is out of range.');\n\n        //change space empty/occupation in time\n\n\n        if (_status == 0) {\n            park_info[_parkingID].Empty++;\n            park_info[_parkingID].SpaceState[_spaceID] = _status;\n        } else if (_status == 1) {\n            park_info[_parkingID].Empty--;\n            park_info[_parkingID].SpaceState[_spaceID] = _status;\n        } else {\n            //check reserve ID to update reservation status\n            for (uint i = 0; i< park_info[_parkingID].ReserveID.length; i++) {\n                uint reserveID_check = park_info[_parkingID].ReserveID[i];\n                uint reserveTime_check = reserve_info[reserveID_check].ReservedTime + reserve_info[reserveID_check].SpaceHour * time_unit;\n\n                //in reserved state\n                if (park_info[_parkingID].ReserveID[i] > 0 && (reserve_info[reserveID_check].State == 1)) {\n                        //Occupation in 12hours reservation\n                        if ((reserveTime_check >= now) && (reserveTime_check - now < before_reservation_time)) {\n                            //occupation from empty within reservation time 12 hours\n                            if(park_info[_parkingID].SpaceState[i] == 0) {\n                                park_info[_parkingID].SpaceState[i] = 1;\n                                park_info[_parkingID].Empty--;\n                            }\n\n                        } else if (reserveTime_check < now) {\n                        //release reservation when time out\n                            reserve_info[reserveID_check].State = 0;\n                            park_info[_parkingID].SpaceState[i] = 0;\n                            park_info[_parkingID].ReserveID[i] = 0;\n                            park_info[_parkingID].Empty++;\n                            park_info[_parkingID].ParkAddress.transfer(park_info[_parkingID].Deposit);\n                            emit transferEvent (ContractAddress, park_info[_parkingID].ParkAddress, park_info[_parkingID].Deposit);\n                        }\n                }\n            }\n        }\n\n\n\n\n\n\n\n        // // check space = 0 or 1 for now\n        // uint ocupation_num = 0;\n        // for (uint i=0; i<park_info[_parkingID].SpaceStatus.length; i++)\n        // {\n        //      ocupation_num = ocupation_num + (park_info[_parkingID].SpaceStatus[i] % 2);\n        // }\n        // park_info[_parkingID].Empty = park_info[_parkingID].Total - ocupation_num;\n\n    }\n\n\n    //Park reservation\n    function ParkReserve (uint _parkingID, uint _spaceID, uint _reserve_hour) public payable returns (uint _reserveIds) {\n\n        require(parkIDvalid[_parkingID] == true, 'This ID is invalid (Parking lot not exit).');\n        require(park_info[_parkingID].ReserveID[_spaceID] == 0, 'Reservation exit. Choses other place to reserve.');\n        require(park_info[_parkingID].SpaceState[_spaceID] == 0, 'not empty, cant reserve.');\n        require(msg.value == (park_info[_parkingID].Deposit), 'deposit not enough.');\n\n        reservationID ++;\n        park_info[_parkingID].ReserveID[_spaceID] = reservationID;\n        // update ParkInfo when reservation time within before_reservation_time(12 hours)\n        if(_reserve_hour * time_unit < before_reservation_time) {\n            park_info[_parkingID].SpaceState[_spaceID] = 1;\n            park_info[_parkingID].Empty--;\n        }\n\n\n        reserve_info [reservationID] = ReserveInfo(_parkingID, _spaceID, _reserve_hour, 1, now, msg.sender);\n        emit transferEvent(msg.sender, ContractAddress, park_info[_parkingID].Deposit);\n\n        return reservationID;\n    }\n\n    //Reservation update : cancel or using\n    function UpdateReserve (uint _reserveID, uint _operator) public returns (bool, uint check_time) {\n\n        uint check_time = (reserve_info[_reserveID].ReservedTime) + (reserve_info[_reserveID].SpaceHour * time_unit);\n\n        require(reserve_info[_reserveID].User == msg.sender, 'you have no reservation.');\n        require(check_time >= now, 'your reservation is time out.');\n\n\n        require(reserve_info[_reserveID].State == 1, 'only reservation state can cancel or use park.');\n        require( _operator == 0 || _operator == 1, '0: for cancel, 1: for park');\n\n        uint park_id = reserve_info[_reserveID].ParkID;\n        uint space_id = reserve_info[_reserveID].SpaceID;\n\n        park_info[park_id].ReserveID[space_id] = 0;\n        //cancel/using reservation\n        if (check_time >= now) {\n            //cancle\n            if (_operator == 0) {\n\n\n                if (check_time - now <= before_reservation_time) {\n                    park_info[park_id].Empty++;\n                    park_info[park_id].SpaceState[space_id] = 0;\n                }\n            //park\n            } else if (_operator == 1) {\n                require(check_time - now <= valid_reservation_time, 'not your reservation time.');\n                park_info[park_id].SpaceState[space_id] = 1;\n\n            }\n\n            reserve_info[_reserveID].State = 0;\n            //user get back deposit\n            msg.sender.transfer(park_info[park_id].Deposit);\n            emit transferEvent(ContractAddress, msg.sender, park_info[park_id].Deposit);\n        }\n        // out of reservation time\n        return (true,check_time);\n    }\n\n\n    //payment (information from front end sensor)\n    function ParkPay (uint _parkingID, uint _price) public payable returns (bool) {\n        require( _price*eth2wei == msg.value, 'pay not correct.');\n\n\n        park_info[_parkingID].ParkAddress.transfer(msg.value);\n        emit transferEvent(msg.sender, park_info[_parkingID].ParkAddress, msg.value);\n        return true;\n    }\n\n\n    //test\n    function ChangeReservedTime (uint _reserveID, uint _time)  public {\n        reserve_info[_reserveID].ReservedTime = _time;\n    }\n\n\n    function getContractBalance () public view returns (uint) {\n        return ContractAddress.balance;\n    }\n}\n",
  "sourcePath": "/Users/karenwang/Desktop/BlockChain/Ethereum/NCT_Project_Course/Project/PARK/Solidy_Part/contracts/Parking.sol",
  "compiler": {
    "name": "solc",
    "version": "0.5.0+commit.1d4f565a.Emscripten.clang"
  },
  "schemaVersion": "3.0.2",
  "updatedAt": "2019-05-15T00:18:02.556Z",
  "devdoc": {
    "methods": {}
  },
  "userdoc": {
    "methods": {}
  }
}