{
  "contractName": "Parking",
  "abi": [
    {
      "constant": true,
      "inputs": [
        {
          "name": "",
          "type": "uint256"
        }
      ],
      "name": "parkIDvalid",
      "outputs": [
        {
          "name": "",
          "type": "bool"
        }
      ],
      "payable": false,
      "stateMutability": "view",
      "type": "function",
      "signature": "0x31264114"
    },
    {
      "constant": true,
      "inputs": [
        {
          "name": "",
          "type": "address"
        }
      ],
      "name": "Admin",
      "outputs": [
        {
          "name": "",
          "type": "bool"
        }
      ],
      "payable": false,
      "stateMutability": "view",
      "type": "function",
      "signature": "0x33b005d0"
    },
    {
      "constant": true,
      "inputs": [
        {
          "name": "",
          "type": "uint256"
        }
      ],
      "name": "park_info",
      "outputs": [
        {
          "name": "Empty",
          "type": "uint256"
        },
        {
          "name": "Total",
          "type": "uint256"
        },
        {
          "name": "Price",
          "type": "uint256"
        },
        {
          "name": "ParkAddress",
          "type": "address"
        }
      ],
      "payable": false,
      "stateMutability": "view",
      "type": "function",
      "signature": "0x54f1a93a"
    },
    {
      "constant": true,
      "inputs": [],
      "name": "ContractOwner",
      "outputs": [
        {
          "name": "",
          "type": "address"
        }
      ],
      "payable": false,
      "stateMutability": "view",
      "type": "function",
      "signature": "0x5a63fbc9"
    },
    {
      "constant": true,
      "inputs": [],
      "name": "reservationID",
      "outputs": [
        {
          "name": "",
          "type": "uint256"
        }
      ],
      "payable": false,
      "stateMutability": "view",
      "type": "function",
      "signature": "0x9b02bcad"
    },
    {
      "constant": true,
      "inputs": [
        {
          "name": "",
          "type": "uint256"
        }
      ],
      "name": "reserve_info",
      "outputs": [
        {
          "name": "ParkID",
          "type": "uint256"
        },
        {
          "name": "SpaceID",
          "type": "uint256"
        },
        {
          "name": "State",
          "type": "uint256"
        },
        {
          "name": "User",
          "type": "address"
        }
      ],
      "payable": false,
      "stateMutability": "view",
      "type": "function",
      "signature": "0xcc5f89dd"
    },
    {
      "inputs": [],
      "payable": false,
      "stateMutability": "nonpayable",
      "type": "constructor",
      "signature": "constructor"
    },
    {
      "anonymous": false,
      "inputs": [
        {
          "indexed": false,
          "name": "_from",
          "type": "address"
        },
        {
          "indexed": false,
          "name": "_to",
          "type": "address"
        },
        {
          "indexed": false,
          "name": "_number",
          "type": "uint256"
        }
      ],
      "name": "transferEvent",
      "type": "event",
      "signature": "0x5d439cf3a1f6215b41908e5b0b300f39679a3ff1cc010691c1d4ec4d0e2a4ebb"
    },
    {
      "constant": false,
      "inputs": [
        {
          "name": "_right",
          "type": "bool"
        },
        {
          "name": "_addr",
          "type": "address"
        }
      ],
      "name": "UpdetAdmin",
      "outputs": [
        {
          "name": "",
          "type": "bool"
        }
      ],
      "payable": false,
      "stateMutability": "nonpayable",
      "type": "function",
      "signature": "0x1a254916"
    },
    {
      "constant": false,
      "inputs": [
        {
          "name": "_parkingID",
          "type": "uint256"
        },
        {
          "name": "_right",
          "type": "bool"
        },
        {
          "name": "_addr",
          "type": "address"
        }
      ],
      "name": "UpdetParkAdmin",
      "outputs": [
        {
          "name": "",
          "type": "bool"
        }
      ],
      "payable": false,
      "stateMutability": "nonpayable",
      "type": "function",
      "signature": "0xc9dd16b8"
    },
    {
      "constant": false,
      "inputs": [
        {
          "name": "_total",
          "type": "uint256"
        },
        {
          "name": "_parkingID",
          "type": "uint256"
        },
        {
          "name": "_price",
          "type": "uint256"
        },
        {
          "name": "_parkingOwner",
          "type": "address"
        }
      ],
      "name": "ParkRegister",
      "outputs": [
        {
          "name": "",
          "type": "bool"
        }
      ],
      "payable": false,
      "stateMutability": "nonpayable",
      "type": "function",
      "signature": "0x34b9762a"
    },
    {
      "constant": false,
      "inputs": [
        {
          "name": "_parkingID",
          "type": "uint256"
        },
        {
          "name": "_total",
          "type": "uint256"
        },
        {
          "name": "_empty",
          "type": "uint256"
        },
        {
          "name": "_price",
          "type": "uint256"
        }
      ],
      "name": "ChangeParkInfo",
      "outputs": [],
      "payable": false,
      "stateMutability": "nonpayable",
      "type": "function",
      "signature": "0x089a96fc"
    },
    {
      "constant": true,
      "inputs": [
        {
          "name": "_parkingID",
          "type": "uint256"
        }
      ],
      "name": "GetParkInfo",
      "outputs": [
        {
          "name": "",
          "type": "uint256"
        },
        {
          "name": "",
          "type": "uint256"
        },
        {
          "name": "",
          "type": "bool[]"
        },
        {
          "name": "",
          "type": "uint256"
        }
      ],
      "payable": false,
      "stateMutability": "view",
      "type": "function",
      "signature": "0x1ea76455"
    },
    {
      "constant": false,
      "inputs": [
        {
          "name": "_parkingID",
          "type": "uint256"
        },
        {
          "name": "_spaceID",
          "type": "uint256"
        }
      ],
      "name": "ParkReserve",
      "outputs": [
        {
          "name": "_reserveIds",
          "type": "uint256"
        }
      ],
      "payable": true,
      "stateMutability": "payable",
      "type": "function",
      "signature": "0x7ff8eb09"
    },
    {
      "constant": false,
      "inputs": [
        {
          "name": "_reserveID",
          "type": "uint256"
        },
        {
          "name": "_state",
          "type": "uint256"
        }
      ],
      "name": "UpdateReserve",
      "outputs": [
        {
          "name": "",
          "type": "bool"
        }
      ],
      "payable": false,
      "stateMutability": "nonpayable",
      "type": "function",
      "signature": "0x00142bf0"
    },
    {
      "constant": false,
      "inputs": [
        {
          "name": "_parkingID",
          "type": "uint256"
        },
        {
          "name": "_spaceID",
          "type": "uint256"
        }
      ],
      "name": "ParkOrder",
      "outputs": [
        {
          "name": "",
          "type": "bool"
        }
      ],
      "payable": false,
      "stateMutability": "nonpayable",
      "type": "function",
      "signature": "0x79a09d5b"
    },
    {
      "constant": false,
      "inputs": [
        {
          "name": "_reserveId",
          "type": "uint256"
        },
        {
          "name": "_parkingID",
          "type": "uint256"
        },
        {
          "name": "_spaceID",
          "type": "uint256"
        }
      ],
      "name": "ParkPay",
      "outputs": [
        {
          "name": "",
          "type": "bool"
        }
      ],
      "payable": true,
      "stateMutability": "payable",
      "type": "function",
      "signature": "0x347b6241"
    }
  ],
  "bytecode": "0x608060405234801561001057600080fd5b5033600460006101000a81548173ffffffffffffffffffffffffffffffffffffffff021916908373ffffffffffffffffffffffffffffffffffffffff160217905550600160056000600460009054906101000a900473ffffffffffffffffffffffffffffffffffffffff1673ffffffffffffffffffffffffffffffffffffffff1673ffffffffffffffffffffffffffffffffffffffff16815260200190815260200160002060006101000a81548160ff0219169083151502179055506000600381905550611b47806100e36000396000f3fe6080604052600436106100da576000357c0100000000000000000000000000000000000000000000000000000000900463ffffffff168062142bf0146100df578063089a96fc1461013c5780631a254916146101955780631ea764551461020a57806331264114146102af57806333b005d014610302578063347b62411461036b57806334b9762a146103c557806354f1a93a1461044c5780635a63fbc9146104dc57806379a09d5b146105335780637ff8eb09146105905780639b02bcad146105dc578063c9dd16b814610607578063cc5f89dd14610686575b600080fd5b3480156100eb57600080fd5b506101226004803603604081101561010257600080fd5b810190808035906020019092919080359060200190929190505050610716565b604051808215151515815260200191505060405180910390f35b34801561014857600080fd5b506101936004803603608081101561015f57600080fd5b8101908080359060200190929190803590602001909291908035906020019092919080359060200190929190505050610a4b565b005b3480156101a157600080fd5b506101f0600480360360408110156101b857600080fd5b81019080803515159060200190929190803573ffffffffffffffffffffffffffffffffffffffff169060200190929190505050610b75565b604051808215151515815260200191505060405180910390f35b34801561021657600080fd5b506102436004803603602081101561022d57600080fd5b8101908080359060200190929190505050610bd8565b6040518085815260200184815260200180602001838152602001828103825284818151815260200191508051906020019060200280838360005b8381101561029857808201518184015260208101905061027d565b505050509050019550505050505060405180910390f35b3480156102bb57600080fd5b506102e8600480360360208110156102d257600080fd5b8101908080359060200190929190505050610d58565b604051808215151515815260200191505060405180910390f35b34801561030e57600080fd5b506103516004803603602081101561032557600080fd5b81019080803573ffffffffffffffffffffffffffffffffffffffff169060200190929190505050610d78565b604051808215151515815260200191505060405180910390f35b6103ab6004803603606081101561038157600080fd5b81019080803590602001909291908035906020019092919080359060200190929190505050610d98565b604051808215151515815260200191505060405180910390f35b3480156103d157600080fd5b50610432600480360360808110156103e857600080fd5b81019080803590602001909291908035906020019092919080359060200190929190803573ffffffffffffffffffffffffffffffffffffffff16906020019092919050505061101a565b604051808215151515815260200191505060405180910390f35b34801561045857600080fd5b506104856004803603602081101561046f57600080fd5b8101908080359060200190929190505050611458565b604051808581526020018481526020018381526020018273ffffffffffffffffffffffffffffffffffffffff1673ffffffffffffffffffffffffffffffffffffffff16815260200194505050505060405180910390f35b3480156104e857600080fd5b506104f16114a8565b604051808273ffffffffffffffffffffffffffffffffffffffff1673ffffffffffffffffffffffffffffffffffffffff16815260200191505060405180910390f35b34801561053f57600080fd5b506105766004803603604081101561055657600080fd5b8101908080359060200190929190803590602001909291905050506114ce565b604051808215151515815260200191505060405180910390f35b6105c6600480360360408110156105a657600080fd5b81019080803590602001909291908035906020019092919050505061154d565b6040518082815260200191505060405180910390f35b3480156105e857600080fd5b506105f16118a2565b6040518082815260200191505060405180910390f35b34801561061357600080fd5b5061066c6004803603606081101561062a57600080fd5b8101908080359060200190929190803515159060200190929190803573ffffffffffffffffffffffffffffffffffffffff1690602001909291905050506118a8565b604051808215151515815260200191505060405180910390f35b34801561069257600080fd5b506106bf600480360360208110156106a957600080fd5b81019080803590602001909291905050506119f5565b604051808581526020018481526020018381526020018273ffffffffffffffffffffffffffffffffffffffff1673ffffffffffffffffffffffffffffffffffffffff16815260200194505050505060405180910390f35b60003373ffffffffffffffffffffffffffffffffffffffff166001600085815260200190815260200160002060030160009054906101000a900473ffffffffffffffffffffffffffffffffffffffff1673ffffffffffffffffffffffffffffffffffffffff16141515156107f2576040517f08c379a00000000000000000000000000000000000000000000000000000000081526004018080602001828103825260188152602001807f796f752068617665206e6f207265736572766174696f6e2e000000000000000081525060200191505060405180910390fd5b60008214806108015750600282145b151561089b576040517f08c379a00000000000000000000000000000000000000000000000000000000081526004018080602001828103825260308152602001807f6f6e6c792063616e63656c205f7374617465203d2030206f72207573696e672081526020017f7061726b205f7374617465203d20322e0000000000000000000000000000000081525060400191505060405180910390fd5b8160016000858152602001908152602001600020600201819055506000600160008581526020019081526020016000206000015490506000600160008681526020019081526020016000206001015490506000841415610a2357608060405190810160405280600081526020016000815260200160008152602001600073ffffffffffffffffffffffffffffffffffffffff168152506001600087815260200190815260200160002060008201518160000155602082015181600101556040820151816002015560608201518160030160006101000a81548173ffffffffffffffffffffffffffffffffffffffff021916908373ffffffffffffffffffffffffffffffffffffffff160217905550905050600080838152602001908152602001600020600001600081548092919060010191905055506000806000848152602001908152602001600020600201828154811015156109f557fe5b90600052602060002090602091828204019190066101000a81548160ff021916908315150217905550610a3f565b8360016000878152602001908152602001600020600201819055505b60019250505092915050565b8360008082815260200190815260200160002060040160003373ffffffffffffffffffffffffffffffffffffffff1673ffffffffffffffffffffffffffffffffffffffff16815260200190815260200160002060009054906101000a900460ff161515610b20576040517f08c379a000000000000000000000000000000000000000000000000000000000815260040180806020018281038252601b8152602001807f596f7520617265206e6f74205061726b2041646d696e6973746f72000000000081525060200191505060405180910390fd5b8360008087815260200190815260200160002060010181905550826000808781526020019081526020016000206000018190555081600080878152602001908152602001600020600301819055505050505050565b600082600560008473ffffffffffffffffffffffffffffffffffffffff1673ffffffffffffffffffffffffffffffffffffffff16815260200190815260200160002060006101000a81548160ff0219169083151502179055506001905092915050565b60008060606000600115156002600087815260200190815260200160002060009054906101000a900460ff161515141515610c7b576040517f08c379a00000000000000000000000000000000000000000000000000000000081526004018080602001828103825260138152602001807f5468697320494420697320696e76616c69642e0000000000000000000000000081525060200191505060405180910390fd5b60008086815260200190815260200160002060000154600080878152602001908152602001600020600101546000808881526020019081526020016000206002016000808981526020019081526020016000206003015481805480602002602001604051908101604052809291908181526020018280548015610d4257602002820191906000526020600020906000905b82829054906101000a900460ff16151581526020019060010190602082600001049283019260010382029150808411610d0c5790505b5050505050915093509350935093509193509193565b60026020528060005260406000206000915054906101000a900460ff1681565b60056020528060005260406000206000915054906101000a900460ff1681565b60003460008085815260200190815260200160002060030154141515610e26576040517f08c379a00000000000000000000000000000000000000000000000000000000081526004018080602001828103825260108152602001807f706179206e6f7420636f72726563742e0000000000000000000000000000000081525060200191505060405180910390fd5b60008084815260200190815260200160002060000160008154809291906001019190505550600080600085815260200190815260200160002060020183815481101515610e6f57fe5b90600052602060002090602091828204019190066101000a81548160ff021916908315150217905550600084141515610ebf57600060016000868152602001908152602001600020600201819055505b60008084815260200190815260200160002060050160009054906101000a900473ffffffffffffffffffffffffffffffffffffffff1673ffffffffffffffffffffffffffffffffffffffff166108fc349081150290604051600060405180830381858888f19350505050158015610f3a573d6000803e3d6000fd5b507f5d439cf3a1f6215b41908e5b0b300f39679a3ff1cc010691c1d4ec4d0e2a4ebb3360008086815260200190815260200160002060050160009054906101000a900473ffffffffffffffffffffffffffffffffffffffff1634604051808473ffffffffffffffffffffffffffffffffffffffff1673ffffffffffffffffffffffffffffffffffffffff1681526020018373ffffffffffffffffffffffffffffffffffffffff1673ffffffffffffffffffffffffffffffffffffffff168152602001828152602001935050505060405180910390a1600190509392505050565b6000600460009054906101000a900473ffffffffffffffffffffffffffffffffffffffff1673ffffffffffffffffffffffffffffffffffffffff163373ffffffffffffffffffffffffffffffffffffffff16141515611107576040517f08c379a00000000000000000000000000000000000000000000000000000000081526004018080602001828103825260248152602001807f6f6e6c7920636f6e74726163744f776e6572206861766520726967687420746f81526020017f2069742e0000000000000000000000000000000000000000000000000000000081525060400191505060405180910390fd5b60011515600560003373ffffffffffffffffffffffffffffffffffffffff1673ffffffffffffffffffffffffffffffffffffffff16815260200190815260200160002060009054906101000a900460ff1615151415156111cf576040517f08c379a00000000000000000000000000000000000000000000000000000000081526004018080602001828103825260128152602001807f596f7520617265206e6f742041646d696e2e000000000000000000000000000081525060200191505060405180910390fd5b600015156002600086815260200190815260200160002060009054906101000a900460ff16151514151561126b576040517f08c379a00000000000000000000000000000000000000000000000000000000081526004018080602001828103825260158152602001807f5468697320494420616c726561647920757365642e000000000000000000000081525060200191505060405180910390fd5b60016002600086815260200190815260200160002060006101000a81548160ff0219169083151502179055506060856040519080825280602002602001820160405280156112c85781602001602082028038833980820191505090505b50905060008090505b8681101561130a57600082828151811015156112e957fe5b906020019060200201901515908115158152505080806001019150506112d1565b50600160008087815260200190815260200160002060040160008573ffffffffffffffffffffffffffffffffffffffff1673ffffffffffffffffffffffffffffffffffffffff16815260200190815260200160002060006101000a81548160ff02191690831515021790555060a0604051908101604052808781526020018781526020018281526020018581526020018473ffffffffffffffffffffffffffffffffffffffff16815250600080878152602001908152602001600020600082015181600001556020820151816001015560408201518160020190805190602001906113f6929190611a45565b506060820151816003015560808201518160050160006101000a81548173ffffffffffffffffffffffffffffffffffffffff021916908373ffffffffffffffffffffffffffffffffffffffff1602179055509050506001915050949350505050565b60006020528060005260406000206000915090508060000154908060010154908060030154908060050160009054906101000a900473ffffffffffffffffffffffffffffffffffffffff16905084565b600460009054906101000a900473ffffffffffffffffffffffffffffffffffffffff1681565b6000806000848152602001908152602001600020600001600081548092919060019003919050555060016000808581526020019081526020016000206002018381548110151561151a57fe5b90600052602060002090602091828204019190066101000a81548160ff0219169083151502179055506001905092915050565b6000600360008154809291906001019190505550600115156002600085815260200190815260200160002060009054906101000a900460ff161515141515611623576040517f08c379a000000000000000000000000000000000000000000000000000000000815260040180806020018281038252602a8152602001807f5468697320494420697320696e76616c696420285061726b696e67206c6f742081526020017f6e6f742065786974292e0000000000000000000000000000000000000000000081525060400191505060405180910390fd5b600080600085815260200190815260200160002060000154141515156116b1576040517f08c379a00000000000000000000000000000000000000000000000000000000081526004018080602001828103825260188152602001807f5468657265206973206e6f20656d7074792073706163652e000000000000000081525060200191505060405180910390fd5b60001515600080858152602001908152602001600020600201838154811015156116d757fe5b90600052602060002090602091828204019190069054906101000a900460ff16151514151561176e576040517f08c379a00000000000000000000000000000000000000000000000000000000081526004018080602001828103825260178152602001807f54686973207370616365206973206e6f7420656d70747900000000000000000081525060200191505060405180910390fd5b60016000808581526020019081526020016000206002018381548110151561179257fe5b90600052602060002090602091828204019190066101000a81548160ff021916908315150217905550608060405190810160405280848152602001838152602001600181526020013373ffffffffffffffffffffffffffffffffffffffff1681525060016000600354815260200190815260200160002060008201518160000155602082015181600101556040820151816002015560608201518160030160006101000a81548173ffffffffffffffffffffffffffffffffffffffff021916908373ffffffffffffffffffffffffffffffffffffffff1602179055509050506000808481526020019081526020016000206000016000815480929190600190039190505550600354905092915050565b60035481565b60008360008082815260200190815260200160002060040160003373ffffffffffffffffffffffffffffffffffffffff1673ffffffffffffffffffffffffffffffffffffffff16815260200190815260200160002060009054906101000a900460ff16151561197f576040517f08c379a000000000000000000000000000000000000000000000000000000000815260040180806020018281038252601b8152602001807f596f7520617265206e6f74205061726b2041646d696e6973746f72000000000081525060200191505060405180910390fd5b8360008087815260200190815260200160002060040160008573ffffffffffffffffffffffffffffffffffffffff1673ffffffffffffffffffffffffffffffffffffffff16815260200190815260200160002060006101000a81548160ff02191690831515021790555060019150509392505050565b60016020528060005260406000206000915090508060000154908060010154908060020154908060030160009054906101000a900473ffffffffffffffffffffffffffffffffffffffff16905084565b82805482825590600052602060002090601f01602090048101928215611ada5791602002820160005b83821115611aab57835183826101000a81548160ff0219169083151502179055509260200192600101602081600001049283019260010302611a6e565b8015611ad85782816101000a81549060ff0219169055600101602081600001049283019260010302611aab565b505b509050611ae79190611aeb565b5090565b611b1891905b80821115611b1457600081816101000a81549060ff021916905550600101611af1565b5090565b9056fea165627a7a72305820398708bb9546d188302f514f3c4967129d0f6eed70c2e0a351ca198457c9ac4a0029",
  "source": "pragma solidity >=0.4.22 <0.6.0;\n/*\n- 搜尋：\n    -停車場、可租車位\n    -空位數\n- 預約\n    -時段\n    -金額\n    -支付\n    -取消\n\n- 出租\n    -加入\n    -時段\n    -金額\n    -取消\n\n- 停車場訊息\n    -增加\n    -取消\n*/\n\n\ncontract Parking {\n\n    struct ParkInfo {\n        uint Empty;     // empty number\n        uint Total;     // total number\n        bool [] SpaceStatus;   //0: empty | 1: occupation\n        uint Price;\n        mapping (address => bool) ParkAdmin; // Park administor has right to change info\n        address payable ParkAddress; //receive wei\n    }\n\n    struct ReserveInfo {\n        uint ParkID; // which Park\n        uint SpaceID; // which Space\n        uint State; // 0: release, 1: reserved, 2: using,\n        address User;\n    }\n\n\n    //ParkInfo [] public parkinfo;\n    mapping(uint => ParkInfo) public park_info; //parkingID mapping to ParkInfo\n    mapping(uint => ReserveInfo) public reserve_info; //reservationID map to\n    mapping(uint => bool) public parkIDvalid; // check parkID registered\n    uint public reservationID;\n    address public ContractOwner;  //have right to add/cancel Admin\n    mapping (address => bool) public Admin; // 1: with right to change data\n\n    //transfer wei log\n    event transferEvent (address _from, address _to, uint _number);\n\n    //initialize BetContract Address & Owner\n    constructor () public {\n        ContractOwner = msg.sender;\n        Admin[ContractOwner] = true;\n        reservationID = 0;\n    }\n\n    modifier onlyContractOwner () {\n        require(msg.sender == ContractOwner, 'only contractOwner have right to it.');\n        _;\n    }\n\n    modifier onlyAdmin () {\n        require(Admin[msg.sender] == true, 'You are not Admin.');\n        _;\n    }\n\n    modifier onlyParkAdmin (uint _parkId) {\n        require(park_info[_parkId].ParkAdmin[msg.sender], 'You are not Park Administor');\n        _;\n    }\n\n    //Give System Admin right\n    function UpdetAdmin (bool _right, address _addr) public returns (bool) {\n        Admin[_addr] = _right;\n        return true;\n    }\n\n    //Give Park Admin right\n    function UpdetParkAdmin (uint _parkingID, bool _right, address _addr) onlyParkAdmin (_parkingID) public\n        returns (bool) {\n        park_info[_parkingID].ParkAdmin[_addr] = _right;\n        return true;\n    }\n\n    //Register Parking Info\n    function ParkRegister (uint _total, uint _parkingID, uint _price, address payable _parkingOwner) onlyContractOwner onlyAdmin public\n        returns (bool) {\n        //parkingID ++;\n        //parkNum2ID[_parkNum] = parkingID;\n        require(parkIDvalid[_parkingID] == false, 'This ID already used.');\n        parkIDvalid[_parkingID] = true;\n        bool [] memory _status;\n        _status = new bool [] (_total);\n\n        for (uint i = 0; i < _total; i++ ) {\n            _status[i] = false;\n        }\n\n\n        park_info[_parkingID].ParkAdmin[_parkingOwner] = true;\n\n        park_info[_parkingID] = ParkInfo(_total, _total, _status, _price, _parkingOwner);\n        return true;\n    }\n\n    //only Park administro or contract Owner can change Park Info\n    function ChangeParkInfo (uint _parkingID, uint _total, uint _empty, uint _price) onlyParkAdmin (_parkingID) public {\n        park_info[_parkingID].Total = _total;\n        park_info[_parkingID].Empty = _empty;\n        park_info[_parkingID].Price = _price;\n    }\n\n    //get Parking information\n    function GetParkInfo (uint _parkingID) public view returns  (uint,\n                                                                 uint,\n                                                                 bool [] memory,\n                                                                 uint) {\n\n        require(parkIDvalid[_parkingID] == true, 'This ID is invalid.');\n        return (park_info[_parkingID].Empty,\n                park_info[_parkingID].Total,\n                park_info[_parkingID].SpaceStatus,\n                park_info[_parkingID].Price);\n    }\n\n    //Park reservation\n    function ParkReserve (uint _parkingID, uint _spaceID) public payable returns (uint _reserveIds) {\n        reservationID ++;\n        require(parkIDvalid[_parkingID] == true, 'This ID is invalid (Parking lot not exit).');\n        require(park_info[_parkingID].Empty != 0, 'There is no empty space.');\n        require(park_info[_parkingID].SpaceStatus[_spaceID] == false, 'This space is not empty');\n\n        park_info[_parkingID].SpaceStatus[_spaceID] = true;\n        reserve_info [reservationID] = ReserveInfo(_parkingID, _spaceID, 1,msg.sender);\n        park_info[_parkingID].Empty --;\n\n        return reservationID;\n    }\n\n    //Reservation update : cancel or using\n    function UpdateReserve (uint _reserveID, uint _state) public returns (bool) {\n\n        require(reserve_info[_reserveID].User != msg.sender, 'you have no reservation.');\n        require( (_state == 0 ) || (_state == 2), 'only cancel _state = 0 or using park _state = 2.');\n\n        reserve_info[_reserveID].State = _state;\n\n        uint parkId_temp = reserve_info[_reserveID].ParkID;\n        uint parkSpaceId_temp = reserve_info[_reserveID].SpaceID;\n\n        if (_state == 0) {\n            // cancel reservation\n            reserve_info[_reserveID] = ReserveInfo(0, 0, 0, address(0));\n            park_info[parkId_temp].Empty ++;\n            park_info[parkId_temp].SpaceStatus[parkSpaceId_temp]= false;\n\n        } else {\n            //using park\n            reserve_info[_reserveID].State = _state;\n        }\n\n        return true;\n\n\n    }\n\n    //Park Order\n    function ParkOrder (uint _parkingID,uint _spaceID) public returns (bool) {\n        park_info[_parkingID].Empty--;\n        park_info[_parkingID].SpaceStatus[_spaceID] = true;\n        return true;\n    }\n\n    //payment\n    function ParkPay (uint _reserveId, uint _parkingID, uint _spaceID) public payable returns (bool) {\n        require(park_info[_parkingID].Price == msg.value, 'pay not correct.');\n\n        park_info[_parkingID].Empty++;\n        park_info[_parkingID].SpaceStatus[_spaceID] = false;\n\n        //pay for Order\n        if (_reserveId != 0) {\n            reserve_info[_reserveId].State = 0;\n        }\n\n        park_info[_parkingID].ParkAddress.transfer(msg.value);\n        emit transferEvent(msg.sender, park_info[_parkingID].ParkAddress, msg.value);\n        return true;\n    }\n\n\n}\n",
  "sourcePath": "/Users/karenwang/Desktop/BlockChain/Ethereum/NCT_Project_Course/Project/PARK/Solidy_Part/contracts/Parking.sol",
  "compiler": {
    "name": "solc",
    "version": "0.5.0+commit.1d4f565a.Emscripten.clang"
  },
  "schemaVersion": "3.0.2",
  "updatedAt": "2019-04-16T10:06:02.032Z",
  "devdoc": {
    "methods": {}
  },
  "userdoc": {
    "methods": {}
  }
}