{
  "contractName": "Parking",
  "abi": [
    {
      "constant": true,
      "inputs": [
        {
          "name": "",
          "type": "uint256"
        }
      ],
      "name": "parkIDvalid",
      "outputs": [
        {
          "name": "",
          "type": "bool"
        }
      ],
      "payable": false,
      "stateMutability": "view",
      "type": "function",
      "signature": "0x31264114"
    },
    {
      "constant": true,
      "inputs": [
        {
          "name": "",
          "type": "address"
        }
      ],
      "name": "Admin",
      "outputs": [
        {
          "name": "",
          "type": "bool"
        }
      ],
      "payable": false,
      "stateMutability": "view",
      "type": "function",
      "signature": "0x33b005d0"
    },
    {
      "constant": true,
      "inputs": [
        {
          "name": "",
          "type": "uint256"
        }
      ],
      "name": "park_info",
      "outputs": [
        {
          "name": "ParkID",
          "type": "uint256"
        },
        {
          "name": "Empty",
          "type": "uint256"
        },
        {
          "name": "Total",
          "type": "uint256"
        },
        {
          "name": "Price",
          "type": "uint256"
        },
        {
          "name": "Deposit",
          "type": "uint256"
        },
        {
          "name": "ParkAddress",
          "type": "address"
        },
        {
          "name": "Valid",
          "type": "bool"
        }
      ],
      "payable": false,
      "stateMutability": "view",
      "type": "function",
      "signature": "0x54f1a93a"
    },
    {
      "constant": true,
      "inputs": [],
      "name": "ParkLotNumber",
      "outputs": [
        {
          "name": "",
          "type": "uint256"
        }
      ],
      "payable": false,
      "stateMutability": "view",
      "type": "function",
      "signature": "0x55066620"
    },
    {
      "constant": true,
      "inputs": [],
      "name": "ContractOwner",
      "outputs": [
        {
          "name": "",
          "type": "address"
        }
      ],
      "payable": false,
      "stateMutability": "view",
      "type": "function",
      "signature": "0x5a63fbc9"
    },
    {
      "constant": true,
      "inputs": [],
      "name": "ContractAddress",
      "outputs": [
        {
          "name": "",
          "type": "address"
        }
      ],
      "payable": false,
      "stateMutability": "view",
      "type": "function",
      "signature": "0x66d11c1a"
    },
    {
      "constant": true,
      "inputs": [],
      "name": "reservationID",
      "outputs": [
        {
          "name": "",
          "type": "uint256"
        }
      ],
      "payable": false,
      "stateMutability": "view",
      "type": "function",
      "signature": "0x9b02bcad"
    },
    {
      "constant": true,
      "inputs": [
        {
          "name": "",
          "type": "uint256"
        }
      ],
      "name": "reserve_info",
      "outputs": [
        {
          "name": "ParkID",
          "type": "uint256"
        },
        {
          "name": "SpaceID",
          "type": "uint256"
        },
        {
          "name": "SpaceHour",
          "type": "uint256"
        },
        {
          "name": "State",
          "type": "uint256"
        },
        {
          "name": "ReservedTime",
          "type": "uint256"
        },
        {
          "name": "User",
          "type": "address"
        }
      ],
      "payable": false,
      "stateMutability": "view",
      "type": "function",
      "signature": "0xcc5f89dd"
    },
    {
      "inputs": [],
      "payable": false,
      "stateMutability": "nonpayable",
      "type": "constructor",
      "signature": "constructor"
    },
    {
      "anonymous": false,
      "inputs": [
        {
          "indexed": false,
          "name": "_from",
          "type": "address"
        },
        {
          "indexed": false,
          "name": "_to",
          "type": "address"
        },
        {
          "indexed": false,
          "name": "_number",
          "type": "uint256"
        }
      ],
      "name": "transferEvent",
      "type": "event",
      "signature": "0x5d439cf3a1f6215b41908e5b0b300f39679a3ff1cc010691c1d4ec4d0e2a4ebb"
    },
    {
      "constant": false,
      "inputs": [
        {
          "name": "_right",
          "type": "bool"
        },
        {
          "name": "_addr",
          "type": "address"
        }
      ],
      "name": "UpdetAdmin",
      "outputs": [
        {
          "name": "",
          "type": "bool"
        }
      ],
      "payable": false,
      "stateMutability": "nonpayable",
      "type": "function",
      "signature": "0x1a254916"
    },
    {
      "constant": false,
      "inputs": [
        {
          "name": "_parkingID",
          "type": "uint256"
        },
        {
          "name": "_right",
          "type": "bool"
        },
        {
          "name": "_addr",
          "type": "address"
        }
      ],
      "name": "UpdetParkAdmin",
      "outputs": [
        {
          "name": "",
          "type": "bool"
        }
      ],
      "payable": false,
      "stateMutability": "nonpayable",
      "type": "function",
      "signature": "0xc9dd16b8"
    },
    {
      "constant": false,
      "inputs": [
        {
          "name": "_total",
          "type": "uint256"
        },
        {
          "name": "_price",
          "type": "uint256"
        },
        {
          "name": "_deposit",
          "type": "uint256"
        },
        {
          "name": "_parkingOwner",
          "type": "address"
        }
      ],
      "name": "ParkRegister",
      "outputs": [
        {
          "name": "",
          "type": "uint256"
        }
      ],
      "payable": false,
      "stateMutability": "nonpayable",
      "type": "function",
      "signature": "0x34b9762a"
    },
    {
      "constant": false,
      "inputs": [
        {
          "name": "_parkingID",
          "type": "uint256"
        },
        {
          "name": "_total",
          "type": "uint256"
        },
        {
          "name": "_empty",
          "type": "uint256"
        },
        {
          "name": "_price",
          "type": "uint256"
        },
        {
          "name": "_spaceID",
          "type": "uint256"
        },
        {
          "name": "_deposit",
          "type": "uint256"
        },
        {
          "name": "_space_tatus",
          "type": "uint256"
        },
        {
          "name": "_reserve_id",
          "type": "uint256"
        },
        {
          "name": "_valid",
          "type": "bool"
        }
      ],
      "name": "ChangeParkInfo",
      "outputs": [],
      "payable": false,
      "stateMutability": "nonpayable",
      "type": "function",
      "signature": "0xf28c7945"
    },
    {
      "constant": true,
      "inputs": [
        {
          "name": "_parkingID",
          "type": "uint256"
        }
      ],
      "name": "GetSpaceInfo",
      "outputs": [
        {
          "name": "space_status",
          "type": "uint256[]"
        },
        {
          "name": "reserve_id",
          "type": "uint256[]"
        }
      ],
      "payable": false,
      "stateMutability": "view",
      "type": "function",
      "signature": "0x0146f6c4"
    },
    {
      "constant": false,
      "inputs": [
        {
          "name": "_parkingID",
          "type": "uint256"
        },
        {
          "name": "_spaceID",
          "type": "uint256"
        },
        {
          "name": "_status",
          "type": "uint256"
        }
      ],
      "name": "UpdateParkEmpty",
      "outputs": [],
      "payable": false,
      "stateMutability": "nonpayable",
      "type": "function",
      "signature": "0x6d101c8f"
    },
    {
      "constant": false,
      "inputs": [
        {
          "name": "_parkingID",
          "type": "uint256"
        },
        {
          "name": "_spaceID",
          "type": "uint256"
        },
        {
          "name": "_reserve_hour",
          "type": "uint256"
        }
      ],
      "name": "ParkReserve",
      "outputs": [
        {
          "name": "_reserveIds",
          "type": "uint256"
        }
      ],
      "payable": true,
      "stateMutability": "payable",
      "type": "function",
      "signature": "0x7fb66a1c"
    },
    {
      "constant": false,
      "inputs": [
        {
          "name": "_reserveID",
          "type": "uint256"
        },
        {
          "name": "_operator",
          "type": "uint256"
        }
      ],
      "name": "UpdateReserve",
      "outputs": [
        {
          "name": "",
          "type": "bool"
        },
        {
          "name": "check_time",
          "type": "uint256"
        }
      ],
      "payable": false,
      "stateMutability": "nonpayable",
      "type": "function",
      "signature": "0x00142bf0"
    },
    {
      "constant": false,
      "inputs": [
        {
          "name": "_parkingID",
          "type": "uint256"
        },
        {
          "name": "_price",
          "type": "uint256"
        }
      ],
      "name": "ParkPay",
      "outputs": [
        {
          "name": "",
          "type": "bool"
        }
      ],
      "payable": true,
      "stateMutability": "payable",
      "type": "function",
      "signature": "0xc9e8106e"
    },
    {
      "constant": false,
      "inputs": [
        {
          "name": "_reserveID",
          "type": "uint256"
        },
        {
          "name": "_time",
          "type": "uint256"
        }
      ],
      "name": "ChangeReservedTime",
      "outputs": [],
      "payable": false,
      "stateMutability": "nonpayable",
      "type": "function",
      "signature": "0x7d84902b"
    },
    {
      "constant": true,
      "inputs": [],
      "name": "getContractBalance",
      "outputs": [
        {
          "name": "",
          "type": "uint256"
        }
      ],
      "payable": false,
      "stateMutability": "view",
      "type": "function",
      "signature": "0x6f9fb98a"
    }
  ],
  "bytecode": "0x6080604052670de0b6b3a7640000600855610e1060095561a8c0600a55610708600b5534801561002e57600080fd5b5033600560006101000a81548173ffffffffffffffffffffffffffffffffffffffff021916908373ffffffffffffffffffffffffffffffffffffffff16021790555030600660006101000a81548173ffffffffffffffffffffffffffffffffffffffff021916908373ffffffffffffffffffffffffffffffffffffffff160217905550600160076000600560009054906101000a900473ffffffffffffffffffffffffffffffffffffffff1673ffffffffffffffffffffffffffffffffffffffff1673ffffffffffffffffffffffffffffffffffffffff16815260200190815260200160002060006101000a81548160ff02191690831515021790555060006003819055506000600481905550612c398061014a6000396000f3fe608060405260043610610106576000357c0100000000000000000000000000000000000000000000000000000000900463ffffffff168062142bf01461010b5780630146f6c41461016f5780631a2549161461024757806331264114146102bc57806333b005d01461030f57806334b9762a1461037857806354f1a93a146103fb57806355066620146104a45780635a63fbc9146104cf57806366d11c1a146105265780636d101c8f1461057d5780636f9fb98a146105cc5780637d84902b146105f75780637fb66a1c1461063c5780639b02bcad14610692578063c9dd16b8146106bd578063c9e8106e1461073c578063cc5f89dd1461078c578063f28c79451461082a575b600080fd5b34801561011757600080fd5b5061014e6004803603604081101561012e57600080fd5b8101908080359060200190929190803590602001909291905050506108b8565b60405180831515151581526020018281526020019250505060405180910390f35b34801561017b57600080fd5b506101a86004803603602081101561019257600080fd5b8101908080359060200190929190505050610e76565b604051808060200180602001838103835285818151815260200191508051906020019060200280838360005b838110156101ef5780820151818401526020810190506101d4565b50505050905001838103825284818151815260200191508051906020019060200280838360005b83811015610231578082015181840152602081019050610216565b5050505090500194505050505060405180910390f35b34801561025357600080fd5b506102a26004803603604081101561026a57600080fd5b81019080803515159060200190929190803573ffffffffffffffffffffffffffffffffffffffff169060200190929190505050610fec565b604051808215151515815260200191505060405180910390f35b3480156102c857600080fd5b506102f5600480360360208110156102df57600080fd5b8101908080359060200190929190505050611202565b604051808215151515815260200191505060405180910390f35b34801561031b57600080fd5b5061035e6004803603602081101561033257600080fd5b81019080803573ffffffffffffffffffffffffffffffffffffffff169060200190929190505050611222565b604051808215151515815260200191505060405180910390f35b34801561038457600080fd5b506103e56004803603608081101561039b57600080fd5b81019080803590602001909291908035906020019092919080359060200190929190803573ffffffffffffffffffffffffffffffffffffffff169060200190929190505050611242565b6040518082815260200191505060405180910390f35b34801561040757600080fd5b506104346004803603602081101561041e57600080fd5b81019080803590602001909291905050506116c1565b604051808881526020018781526020018681526020018581526020018481526020018373ffffffffffffffffffffffffffffffffffffffff1673ffffffffffffffffffffffffffffffffffffffff1681526020018215151515815260200197505050505050505060405180910390f35b3480156104b057600080fd5b506104b9611730565b6040518082815260200191505060405180910390f35b3480156104db57600080fd5b506104e4611736565b604051808273ffffffffffffffffffffffffffffffffffffffff1673ffffffffffffffffffffffffffffffffffffffff16815260200191505060405180910390f35b34801561053257600080fd5b5061053b61175c565b604051808273ffffffffffffffffffffffffffffffffffffffff1673ffffffffffffffffffffffffffffffffffffffff16815260200191505060405180910390f35b34801561058957600080fd5b506105ca600480360360608110156105a057600080fd5b81019080803590602001909291908035906020019092919080359060200190929190505050611782565b005b3480156105d857600080fd5b506105e1611ee3565b6040518082815260200191505060405180910390f35b34801561060357600080fd5b5061063a6004803603604081101561061a57600080fd5b810190808035906020019092919080359060200190929190505050611f24565b005b61067c6004803603606081101561065257600080fd5b81019080803590602001909291908035906020019092919080359060200190929190505050611f43565b6040518082815260200191505060405180910390f35b34801561069e57600080fd5b506106a7612465565b6040518082815260200191505060405180910390f35b3480156106c957600080fd5b50610722600480360360608110156106e057600080fd5b8101908080359060200190929190803515159060200190929190803573ffffffffffffffffffffffffffffffffffffffff16906020019092919050505061246b565b604051808215151515815260200191505060405180910390f35b6107726004803603604081101561075257600080fd5b8101908080359060200190929190803590602001909291905050506125b8565b604051808215151515815260200191505060405180910390f35b34801561079857600080fd5b506107c5600480360360208110156107af57600080fd5b810190808035906020019092919050505061278f565b604051808781526020018681526020018581526020018481526020018381526020018273ffffffffffffffffffffffffffffffffffffffff1673ffffffffffffffffffffffffffffffffffffffff168152602001965050505050505060405180910390f35b34801561083657600080fd5b506108b6600480360361012081101561084e57600080fd5b8101908080359060200190929190803590602001909291908035906020019092919080359060200190929190803590602001909291908035906020019092919080359060200190929190803590602001909291908035151590602001909291905050506127eb565b005b600080600060095460016000878152602001908152602001600020600201540260016000878152602001908152602001600020600401540190503373ffffffffffffffffffffffffffffffffffffffff166001600087815260200190815260200160002060050160009054906101000a900473ffffffffffffffffffffffffffffffffffffffff1673ffffffffffffffffffffffffffffffffffffffff161415156109cb576040517f08c379a00000000000000000000000000000000000000000000000000000000081526004018080602001828103825260188152602001807f796f752068617665206e6f207265736572766174696f6e2e000000000000000081525060200191505060405180910390fd5b428110151515610a43576040517f08c379a000000000000000000000000000000000000000000000000000000000815260040180806020018281038252601d8152602001807f796f7572207265736572766174696f6e2069732074696d65206f75742e00000081525060200191505060405180910390fd5b600180600087815260200190815260200160002060030154141515610af6576040517f08c379a000000000000000000000000000000000000000000000000000000000815260040180806020018281038252602e8152602001807f6f6e6c79207265736572766174696f6e2073746174652063616e2063616e636581526020017f6c206f7220757365207061726b2e00000000000000000000000000000000000081525060400191505060405180910390fd5b6000841480610b055750600184145b1515610b79576040517f08c379a000000000000000000000000000000000000000000000000000000000815260040180806020018281038252601a8152602001807f303a20666f722063616e63656c2c20313a20666f72207061726b00000000000081525060200191505060405180910390fd5b600060016000878152602001908152602001600020600001549050600060016000888152602001908152602001600020600101549050600080600084815260200190815260200160002060040182815481101515610bd357fe5b90600052602060002001819055504283101515610e65576000861415610c5d57600a54428403111515610c585760008083815260200190815260200160002060010160008154809291906001019190505550600080600084815260200190815260200160002060030182815481101515610c4957fe5b90600052602060002001819055505b610d16565b6001861415610d1557600b5442840311151515610ce2576040517f08c379a000000000000000000000000000000000000000000000000000000000815260040180806020018281038252601a8152602001807f6e6f7420796f7572207265736572766174696f6e2074696d652e00000000000081525060200191505060405180910390fd5b600160008084815260200190815260200160002060030182815481101515610d0657fe5b90600052602060002001819055505b5b600060016000898152602001908152602001600020600301819055503373ffffffffffffffffffffffffffffffffffffffff166108fc600080858152602001908152602001600020600601549081150290604051600060405180830381858888f19350505050158015610d8d573d6000803e3d6000fd5b507f5d439cf3a1f6215b41908e5b0b300f39679a3ff1cc010691c1d4ec4d0e2a4ebb600660009054906101000a900473ffffffffffffffffffffffffffffffffffffffff163360008086815260200190815260200160002060060154604051808473ffffffffffffffffffffffffffffffffffffffff1673ffffffffffffffffffffffffffffffffffffffff1681526020018373ffffffffffffffffffffffffffffffffffffffff1673ffffffffffffffffffffffffffffffffffffffff168152602001828152602001935050505060405180910390a15b600183945094505050509250929050565b606080600115156002600085815260200190815260200160002060009054906101000a900460ff161515141515610f15576040517f08c379a00000000000000000000000000000000000000000000000000000000081526004018080602001828103825260188152602001807f54686973205061726b20494420697320696e76616c69642e000000000000000081525060200191505060405180910390fd5b60008084815260200190815260200160002060030160008085815260200190815260200160002060040181805480602002602001604051908101604052809291908181526020018280548015610f8a57602002820191906000526020600020905b815481526020019060010190808311610f76575b5050505050915080805480602002602001604051908101604052809291908181526020018280548015610fdc57602002820191906000526020600020905b815481526020019060010190808311610fc8575b5050505050905091509150915091565b6000600560009054906101000a900473ffffffffffffffffffffffffffffffffffffffff1673ffffffffffffffffffffffffffffffffffffffff163373ffffffffffffffffffffffffffffffffffffffff161415156110d9576040517f08c379a00000000000000000000000000000000000000000000000000000000081526004018080602001828103825260248152602001807f6f6e6c7920636f6e74726163744f776e6572206861766520726967687420746f81526020017f2069742e0000000000000000000000000000000000000000000000000000000081525060400191505060405180910390fd5b60011515600760003373ffffffffffffffffffffffffffffffffffffffff1673ffffffffffffffffffffffffffffffffffffffff16815260200190815260200160002060009054906101000a900460ff1615151415156111a1576040517f08c379a000000000000000000000000000000000000000000000000000000000815260040180806020018281038252601c8152602001807f596f7520617265206e6f74205b4169725061726b2041646d696e5d2e0000000081525060200191505060405180910390fd5b82600760008473ffffffffffffffffffffffffffffffffffffffff1673ffffffffffffffffffffffffffffffffffffffff16815260200190815260200160002060006101000a81548160ff0219169083151502179055506001905092915050565b60026020528060005260406000206000915054906101000a900460ff1681565b60076020528060005260406000206000915054906101000a900460ff1681565b6000600560009054906101000a900473ffffffffffffffffffffffffffffffffffffffff1673ffffffffffffffffffffffffffffffffffffffff163373ffffffffffffffffffffffffffffffffffffffff1614151561132f576040517f08c379a00000000000000000000000000000000000000000000000000000000081526004018080602001828103825260248152602001807f6f6e6c7920636f6e74726163744f776e6572206861766520726967687420746f81526020017f2069742e0000000000000000000000000000000000000000000000000000000081525060400191505060405180910390fd5b60011515600760003373ffffffffffffffffffffffffffffffffffffffff1673ffffffffffffffffffffffffffffffffffffffff16815260200190815260200160002060009054906101000a900460ff1615151415156113f7576040517f08c379a000000000000000000000000000000000000000000000000000000000815260040180806020018281038252601c8152602001807f596f7520617265206e6f74205b4169725061726b2041646d696e5d2e0000000081525060200191505060405180910390fd5b600460008154809291906001019190505550600160026000600454815260200190815260200160002060006101000a81548160ff021916908315150217905550606080866040519080825280602002602001820160405280156114695781602001602082028038833980820191505090505b5091508660405190808252806020026020018201604052801561149b5781602001602082028038833980820191505090505b50905060008090505b878110156114f557600083828151811015156114bc57fe5b9060200190602002018181525050600082828151811015156114da57fe5b906020019060200201818152505080806001019150506114a4565b506001600080600454815260200190815260200160002060070160008673ffffffffffffffffffffffffffffffffffffffff1673ffffffffffffffffffffffffffffffffffffffff16815260200190815260200160002060006101000a81548160ff02191690831515021790555061012060405190810160405280600454815260200188815260200188815260200183815260200182815260200160085488028152602001600854870281526020018573ffffffffffffffffffffffffffffffffffffffff1681526020016001151581525060008060045481526020019081526020016000206000820151816000015560208201518160010155604082015181600201556060820151816003019080519060200190611615929190612b9b565b506080820151816004019080519060200190611632929190612b9b565b5060a0820151816005015560c0820151816006015560e08201518160080160006101000a81548173ffffffffffffffffffffffffffffffffffffffff021916908373ffffffffffffffffffffffffffffffffffffffff1602179055506101008201518160080160146101000a81548160ff02191690831515021790555090505060045492505050949350505050565b60006020528060005260406000206000915090508060000154908060010154908060020154908060050154908060060154908060080160009054906101000a900473ffffffffffffffffffffffffffffffffffffffff16908060080160149054906101000a900460ff16905087565b60045481565b600560009054906101000a900473ffffffffffffffffffffffffffffffffffffffff1681565b600660009054906101000a900473ffffffffffffffffffffffffffffffffffffffff1681565b8260008082815260200190815260200160002060070160003373ffffffffffffffffffffffffffffffffffffffff1673ffffffffffffffffffffffffffffffffffffffff16815260200190815260200160002060009054906101000a900460ff161515611857576040517f08c379a000000000000000000000000000000000000000000000000000000000815260040180806020018281038252601b8152602001807f596f7520617265206e6f74205061726b2041646d696e6973746f72000000000081525060200191505060405180910390fd5b6000808581526020019081526020016000206003018381548110151561187957fe5b906000526020600020015482141515156118fb576040517f08c379a000000000000000000000000000000000000000000000000000000000815260040180806020018281038252600e8152602001807f73746174652069732073616d652e00000000000000000000000000000000000081525060200191505060405180910390fd5b600115156002600086815260200190815260200160002060009054906101000a900460ff161515141515611997576040517f08c379a00000000000000000000000000000000000000000000000000000000081526004018080602001828103825260188152602001807f54686973205061726b20494420697320696e76616c69642e000000000000000081525060200191505060405180910390fd5b826000808681526020019081526020016000206003018054905010151515611a27576040517f08c379a00000000000000000000000000000000000000000000000000000000081526004018080602001828103825260198152602001807f5f73706163654944206973206f7574206f662072616e67652e0000000000000081525060200191505060405180910390fd5b6000821415611a8b57600080858152602001908152602001600020600101600081548092919060010191905055508160008086815260200190815260200160002060030184815481101515611a7857fe5b9060005260206000200181905550611edd565b6001821415611af05760008085815260200190815260200160002060010160008154809291906001900391905055508160008086815260200190815260200160002060030184815481101515611add57fe5b9060005260206000200181905550611edc565b60008090505b60008086815260200190815260200160002060040180549050811015611eda57600080600087815260200190815260200160002060040182815481101515611b3a57fe5b9060005260206000200154905060006009546001600084815260200190815260200160002060020154026001600084815260200190815260200160002060040154019050600080600089815260200190815260200160002060040184815481101515611ba257fe5b9060005260206000200154118015611bcf5750600180600084815260200190815260200160002060030154145b15611ecb57428110158015611be75750600a54428203105b15611c7f57600080600089815260200190815260200160002060030184815481101515611c1057fe5b90600052602060002001541415611c7a57600160008089815260200190815260200160002060030184815481101515611c4557fe5b906000526020600020018190555060008088815260200190815260200160002060010160008154809291906001900391905055505b611eca565b42811015611ec95760006001600084815260200190815260200160002060030181905550600080600089815260200190815260200160002060030184815481101515611cc757fe5b9060005260206000200181905550600080600089815260200190815260200160002060040184815481101515611cf957fe5b90600052602060002001819055506000808881526020019081526020016000206001016000815480929190600101919050555060008088815260200190815260200160002060080160009054906101000a900473ffffffffffffffffffffffffffffffffffffffff1673ffffffffffffffffffffffffffffffffffffffff166108fc6000808a8152602001908152602001600020600601549081150290604051600060405180830381858888f19350505050158015611dbc573d6000803e3d6000fd5b507f5d439cf3a1f6215b41908e5b0b300f39679a3ff1cc010691c1d4ec4d0e2a4ebb600660009054906101000a900473ffffffffffffffffffffffffffffffffffffffff166000808a815260200190815260200160002060080160009054906101000a900473ffffffffffffffffffffffffffffffffffffffff166000808b815260200190815260200160002060060154604051808473ffffffffffffffffffffffffffffffffffffffff1673ffffffffffffffffffffffffffffffffffffffff1681526020018373ffffffffffffffffffffffffffffffffffffffff1673ffffffffffffffffffffffffffffffffffffffff168152602001828152602001935050505060405180910390a15b5b5b50508080600101915050611af6565b505b5b50505050565b6000600660009054906101000a900473ffffffffffffffffffffffffffffffffffffffff1673ffffffffffffffffffffffffffffffffffffffff1631905090565b8060016000848152602001908152602001600020600401819055505050565b6000600115156002600086815260200190815260200160002060009054906101000a900460ff161515141515612007576040517f08c379a000000000000000000000000000000000000000000000000000000000815260040180806020018281038252602a8152602001807f5468697320494420697320696e76616c696420285061726b696e67206c6f742081526020017f6e6f742065786974292e0000000000000000000000000000000000000000000081525060400191505060405180910390fd5b60008060008681526020019081526020016000206004018481548110151561202b57fe5b90600052602060002001541415156120d1576040517f08c379a00000000000000000000000000000000000000000000000000000000081526004018080602001828103825260308152602001807f5265736572766174696f6e20657869742e2043686f736573206f74686572207081526020017f6c61636520746f20726573657276652e0000000000000000000000000000000081525060400191505060405180910390fd5b6000806000868152602001908152602001600020600301848154811015156120f557fe5b9060005260206000200154141515612175576040517f08c379a00000000000000000000000000000000000000000000000000000000081526004018080602001828103825260188152602001807f6e6f7420656d7074792c2063616e7420726573657276652e000000000000000081525060200191505060405180910390fd5b6000808581526020019081526020016000206006015434141515612201576040517f08c379a00000000000000000000000000000000000000000000000000000000081526004018080602001828103825260138152602001807f6465706f736974206e6f7420656e6f7567682e0000000000000000000000000081525060200191505060405180910390fd5b6003600081548092919060010191905055506003546000808681526020019081526020016000206004018481548110151561223857fe5b9060005260206000200181905550600a54600954830210156122ad5760016000808681526020019081526020016000206003018481548110151561227857fe5b906000526020600020018190555060008085815260200190815260200160002060010160008154809291906001900391905055505b60c060405190810160405280858152602001848152602001838152602001600181526020014281526020013373ffffffffffffffffffffffffffffffffffffffff16815250600160006003548152602001908152602001600020600082015181600001556020820151816001015560408201518160020155606082015181600301556080820151816004015560a08201518160050160006101000a81548173ffffffffffffffffffffffffffffffffffffffff021916908373ffffffffffffffffffffffffffffffffffffffff1602179055509050507f5d439cf3a1f6215b41908e5b0b300f39679a3ff1cc010691c1d4ec4d0e2a4ebb33600660009054906101000a900473ffffffffffffffffffffffffffffffffffffffff1660008088815260200190815260200160002060060154604051808473ffffffffffffffffffffffffffffffffffffffff1673ffffffffffffffffffffffffffffffffffffffff1681526020018373ffffffffffffffffffffffffffffffffffffffff1673ffffffffffffffffffffffffffffffffffffffff168152602001828152602001935050505060405180910390a160035490509392505050565b60035481565b60008360008082815260200190815260200160002060070160003373ffffffffffffffffffffffffffffffffffffffff1673ffffffffffffffffffffffffffffffffffffffff16815260200190815260200160002060009054906101000a900460ff161515612542576040517f08c379a000000000000000000000000000000000000000000000000000000000815260040180806020018281038252601b8152602001807f596f7520617265206e6f74205061726b2041646d696e6973746f72000000000081525060200191505060405180910390fd5b8360008087815260200190815260200160002060070160008573ffffffffffffffffffffffffffffffffffffffff1673ffffffffffffffffffffffffffffffffffffffff16815260200190815260200160002060006101000a81548160ff02191690831515021790555060019150509392505050565b6000346008548302141515612635576040517f08c379a00000000000000000000000000000000000000000000000000000000081526004018080602001828103825260108152602001807f706179206e6f7420636f72726563742e0000000000000000000000000000000081525060200191505060405180910390fd5b60008084815260200190815260200160002060080160009054906101000a900473ffffffffffffffffffffffffffffffffffffffff1673ffffffffffffffffffffffffffffffffffffffff166108fc349081150290604051600060405180830381858888f193505050501580156126b0573d6000803e3d6000fd5b507f5d439cf3a1f6215b41908e5b0b300f39679a3ff1cc010691c1d4ec4d0e2a4ebb3360008086815260200190815260200160002060080160009054906101000a900473ffffffffffffffffffffffffffffffffffffffff1634604051808473ffffffffffffffffffffffffffffffffffffffff1673ffffffffffffffffffffffffffffffffffffffff1681526020018373ffffffffffffffffffffffffffffffffffffffff1673ffffffffffffffffffffffffffffffffffffffff168152602001828152602001935050505060405180910390a16001905092915050565b60016020528060005260406000206000915090508060000154908060010154908060020154908060030154908060040154908060050160009054906101000a900473ffffffffffffffffffffffffffffffffffffffff16905086565b8860008082815260200190815260200160002060070160003373ffffffffffffffffffffffffffffffffffffffff1673ffffffffffffffffffffffffffffffffffffffff16815260200190815260200160002060009054906101000a900460ff1615156128c0576040517f08c379a000000000000000000000000000000000000000000000000000000000815260040180806020018281038252601b8152602001807f596f7520617265206e6f74205061726b2041646d696e6973746f72000000000081525060200191505060405180910390fd5b60011515600260008c815260200190815260200160002060009054906101000a900460ff16151514151561295c576040517f08c379a00000000000000000000000000000000000000000000000000000000081526004018080602001828103825260188152602001807f54686973205061726b20494420697320696e76616c69642e000000000000000081525060200191505060405180910390fd5b60016000808c81526020019081526020016000206003018781548110151561298057fe5b9060005260206000200154111515612a00576040517f08c379a00000000000000000000000000000000000000000000000000000000081526004018080602001828103825260178152602001807f6f6e6c79203020616e64203120666f722073746174652e00000000000000000081525060200191505060405180910390fd5b856000808c81526020019081526020016000206003018054905010151515612a90576040517f08c379a00000000000000000000000000000000000000000000000000000000081526004018080602001828103825260198152602001807f5f73706163654944206973206f7574206f662072616e67652e0000000000000081525060200191505060405180910390fd5b886000808c81526020019081526020016000206002018190555060085487026000808c81526020019081526020016000206005018190555060085485026000808c815260200190815260200160002060060181905550876000808c815260200190815260200160002060010181905550826000808c815260200190815260200160002060040187815481101515612b2357fe5b9060005260206000200181905550836000808c815260200190815260200160002060030187815481101515612b5457fe5b9060005260206000200181905550816000808c815260200190815260200160002060080160146101000a81548160ff02191690831515021790555050505050505050505050565b828054828255906000526020600020908101928215612bd7579160200282015b82811115612bd6578251825591602001919060010190612bbb565b5b509050612be49190612be8565b5090565b612c0a91905b80821115612c06576000816000905550600101612bee565b5090565b9056fea165627a7a723058207e0cdc6f9ac710193d43e753e09a9c2d693146527966e5d506d20580a4ef09010029",
  "source": "pragma solidity >=0.4.22 <0.6.0;\ncontract Parking {\n\n    struct ParkInfo {\n        uint ParkID;\n        uint Empty;     // empty number\n        uint Total;     // total number\n        uint [] SpaceState;   //0: empty | 1: occupation | other: reservationID\\\n        uint [] ReserveID;\n        uint Price; //\n        uint Deposit; // for Reservation\n        mapping (address => bool) ParkAdmin; // Park administor has right to change info\n        address payable ParkAddress; //receive wei\n        bool Valid;\n    }\n\n    struct ReserveInfo {\n        uint ParkID; // which Park\n        uint SpaceID; // which Space\n        uint SpaceHour; // reservation for after i-th hour\n        uint State; // 0: release, 1: reserved\n        uint ReservedTime; // reservation time\n        address User;\n    }\n\n\n    //ParkInfo [] public parkinfo;\n    mapping(uint => ParkInfo) public park_info; //parkingID mapping to ParkInfo\n    mapping(uint => ReserveInfo) public reserve_info; //reservationID map to\n    mapping(uint => bool) public parkIDvalid; // check parkID registered\n    uint public reservationID;\n    uint public ParkLotNumber;\n    address public ContractOwner;  //have right to add/cancel Admin\n    address public ContractAddress; // contract address for receiving wei\n    mapping (address => bool) public Admin; // 1: with right to change AirPark system\n\n    //for test parameter\n    uint eth2wei = 10**18;\n    uint time_unit = 60*60;\n    uint before_reservation_time = 12 hours;\n    uint valid_reservation_time = 30 minutes;\n\n    //transfer wei log\n    event transferEvent (address _from, address _to, uint _number);\n\n    //initialize BetContract Address & Owner\n    constructor () public {\n        ContractOwner = msg.sender;\n        ContractAddress = address(this);\n        Admin[ContractOwner] = true;\n        reservationID = 0;\n        ParkLotNumber = 0;\n\n\n\n\n    }\n\n    modifier onlyContractOwner () {\n        require(msg.sender == ContractOwner, 'only contractOwner have right to it.');\n        _;\n    }\n\n    modifier onlyAdmin () {\n        require(Admin[msg.sender] == true, 'You are not [AirPark Admin].');\n        _;\n    }\n\n    modifier onlyParkAdmin (uint _parkId) {\n        require(park_info[_parkId].ParkAdmin[msg.sender], 'You are not Park Administor');\n        _;\n    }\n\n    //Give System Admin right\n    function UpdetAdmin (bool _right, address _addr) onlyContractOwner onlyAdmin public returns (bool) {\n        Admin[_addr] = _right;\n        return true;\n    }\n\n    //Give Park Admin right\n    function UpdetParkAdmin (uint _parkingID, bool _right, address _addr) onlyParkAdmin (_parkingID) public\n        returns (bool) {\n        park_info[_parkingID].ParkAdmin[_addr] = _right;\n        return true;\n    }\n\n    //Register Parking Info\n    function ParkRegister (uint _total, uint _price, uint _deposit,address payable _parkingOwner)\n        onlyContractOwner onlyAdmin public\n        returns (uint) {\n\n        //require(parkIDvalid[_parkingID] == false, 'This ID already used.');\n        ParkLotNumber ++;\n        parkIDvalid[ParkLotNumber] = true;\n        uint [] memory _status;\n        uint [] memory _reserve_id;\n        _status = new uint [] (_total);\n        _reserve_id = new uint [] (_total);\n\n        for (uint i = 0; i < _total; i++ ) {\n            _status[i] = 0;\n            _reserve_id[i] = 0;\n        }\n\n\n        park_info[ParkLotNumber].ParkAdmin[_parkingOwner] = true;\n\n        park_info[ParkLotNumber] = ParkInfo(ParkLotNumber, _total, _total, _status, _reserve_id, _price*eth2wei, _deposit*eth2wei, _parkingOwner, true);\n        return ParkLotNumber;\n    }\n\n    //only Park administro or contract Owner can change Park Info\n    function ChangeParkInfo (uint _parkingID,\n                             uint _total,\n                             uint _empty,\n                             uint _price,\n                             uint _spaceID,\n                             uint _deposit,\n                             uint _space_tatus,\n                             uint _reserve_id,\n                             bool _valid)\n        onlyParkAdmin (_parkingID) public {\n\n        require(parkIDvalid[_parkingID] == true, 'This Park ID is invalid.');\n        require(park_info[_parkingID].SpaceState[_spaceID] > 1, 'only 0 and 1 for state.');\n        require(park_info[_parkingID].SpaceState.length >= _spaceID, '_spaceID is out of range.');\n\n        park_info[_parkingID].Total = _total;\n        park_info[_parkingID].Price = _price * eth2wei;\n        park_info[_parkingID].Deposit = _deposit*eth2wei;\n        park_info[_parkingID].Empty = _empty;\n        park_info[_parkingID].ReserveID[_spaceID] = _reserve_id;\n        park_info[_parkingID].SpaceState[_spaceID] = _space_tatus;\n        park_info[_parkingID].Valid = _valid;\n    }\n\n    //get Parking information (customer, read only, free)\n    function GetSpaceInfo (uint _parkingID) public view returns  (uint [] memory space_status,\n                                                                  uint [] memory reserve_id) {\n\n        require(parkIDvalid[_parkingID] == true, 'This Park ID is invalid.');\n\n        return (park_info[_parkingID].SpaceState,\n                park_info[_parkingID].ReserveID);\n    }\n\n    //update ParkInfo for ParkAdmin\n    //change space empty/occupation in time\n    //update reservation status\n\n    function UpdateParkEmpty (uint _parkingID, uint _spaceID, uint _status) public onlyParkAdmin(_parkingID) {\n        //_status: 0 empty, 1 occupation, 2 update for reservation\n        require(_status != park_info[_parkingID].SpaceState[_spaceID], 'state is same.');\n        require(parkIDvalid[_parkingID] == true, 'This Park ID is invalid.');\n        require(park_info[_parkingID].SpaceState.length >= _spaceID, '_spaceID is out of range.');\n\n        //change space empty/occupation in time\n\n\n        if (_status == 0) {\n            park_info[_parkingID].Empty++;\n            park_info[_parkingID].SpaceState[_spaceID] = _status;\n        } else if (_status == 1) {\n            park_info[_parkingID].Empty--;\n            park_info[_parkingID].SpaceState[_spaceID] = _status;\n        } else {\n            //check reserve ID to update reservation status\n            for (uint i = 0; i< park_info[_parkingID].ReserveID.length; i++) {\n                uint reserveID_check = park_info[_parkingID].ReserveID[i];\n                uint reserveTime_check = reserve_info[reserveID_check].ReservedTime + reserve_info[reserveID_check].SpaceHour * time_unit;\n\n                //in reserved state\n                if (park_info[_parkingID].ReserveID[i] > 0 && (reserve_info[reserveID_check].State == 1)) {\n                        //Occupation in 12hours reservation\n                        if ((reserveTime_check >= now) && (reserveTime_check - now < before_reservation_time)) {\n                            //occupation from empty within reservation time 12 hours\n                            if(park_info[_parkingID].SpaceState[i] == 0) {\n                                park_info[_parkingID].SpaceState[i] = 1;\n                                park_info[_parkingID].Empty--;\n                            }\n\n                        } else if (reserveTime_check < now) {\n                        //release reservation when time out\n                            reserve_info[reserveID_check].State = 0;\n                            park_info[_parkingID].SpaceState[i] = 0;\n                            park_info[_parkingID].ReserveID[i] = 0;\n                            park_info[_parkingID].Empty++;\n                            park_info[_parkingID].ParkAddress.transfer(park_info[_parkingID].Deposit);\n                            emit transferEvent (ContractAddress, park_info[_parkingID].ParkAddress, park_info[_parkingID].Deposit);\n                        }\n                }\n            }\n        }\n\n\n\n\n\n\n\n        // // check space = 0 or 1 for now\n        // uint ocupation_num = 0;\n        // for (uint i=0; i<park_info[_parkingID].SpaceStatus.length; i++)\n        // {\n        //      ocupation_num = ocupation_num + (park_info[_parkingID].SpaceStatus[i] % 2);\n        // }\n        // park_info[_parkingID].Empty = park_info[_parkingID].Total - ocupation_num;\n\n    }\n\n\n    //Park reservation\n    function ParkReserve (uint _parkingID, uint _spaceID, uint _reserve_hour) public payable returns (uint _reserveIds) {\n\n        require(parkIDvalid[_parkingID] == true, 'This ID is invalid (Parking lot not exit).');\n        require(park_info[_parkingID].ReserveID[_spaceID] == 0, 'Reservation exit. Choses other place to reserve.');\n        require(park_info[_parkingID].SpaceState[_spaceID] == 0, 'not empty, cant reserve.');\n        require(msg.value == (park_info[_parkingID].Deposit), 'deposit not enough.');\n\n        reservationID ++;\n        park_info[_parkingID].ReserveID[_spaceID] = reservationID;\n        // update ParkInfo when reservation time within before_reservation_time(12 hours)\n        if(_reserve_hour * time_unit < before_reservation_time) {\n            park_info[_parkingID].SpaceState[_spaceID] = 1;\n            park_info[_parkingID].Empty--;\n        }\n\n\n        reserve_info [reservationID] = ReserveInfo(_parkingID, _spaceID, _reserve_hour, 1, now, msg.sender);\n        emit transferEvent(msg.sender, ContractAddress, park_info[_parkingID].Deposit);\n\n        return reservationID;\n    }\n\n    //Reservation update : cancel or using\n    function UpdateReserve (uint _reserveID, uint _operator) public returns (bool, uint check_time) {\n\n        uint check_time = (reserve_info[_reserveID].ReservedTime) + (reserve_info[_reserveID].SpaceHour * time_unit);\n\n        require(reserve_info[_reserveID].User == msg.sender, 'you have no reservation.');\n        require(check_time >= now, 'your reservation is time out.');\n\n\n        require(reserve_info[_reserveID].State == 1, 'only reservation state can cancel or use park.');\n        require( _operator == 0 || _operator == 1, '0: for cancel, 1: for park');\n\n        uint park_id = reserve_info[_reserveID].ParkID;\n        uint space_id = reserve_info[_reserveID].SpaceID;\n\n        park_info[park_id].ReserveID[space_id] = 0;\n        //cancel/using reservation\n        if (check_time >= now) {\n            //cancle\n            if (_operator == 0) {\n\n\n                if (check_time - now <= before_reservation_time) {\n                    park_info[park_id].Empty++;\n                    park_info[park_id].SpaceState[space_id] = 0;\n                }\n            //park\n            } else if (_operator == 1) {\n                require(check_time - now <= valid_reservation_time, 'not your reservation time.');\n                park_info[park_id].SpaceState[space_id] = 1;\n\n            }\n\n            reserve_info[_reserveID].State = 0;\n            //user get back deposit\n            msg.sender.transfer(park_info[park_id].Deposit);\n            emit transferEvent(ContractAddress, msg.sender, park_info[park_id].Deposit);\n        }\n        // out of reservation time\n        return (true,check_time);\n    }\n\n\n    //payment (information from front end sensor)\n    function ParkPay (uint _parkingID, uint _price) public payable returns (bool) {\n        require( _price*eth2wei == msg.value, 'pay not correct.');\n\n\n        park_info[_parkingID].ParkAddress.transfer(msg.value);\n        emit transferEvent(msg.sender, park_info[_parkingID].ParkAddress, msg.value);\n        return true;\n    }\n\n\n    //test\n    function ChangeReservedTime (uint _reserveID, uint _time)  public {\n        reserve_info[_reserveID].ReservedTime = _time;\n    }\n\n\n    function getContractBalance () public view returns (uint) {\n        return ContractAddress.balance;\n    }\n}\n",
  "sourcePath": "/Users/karenwang/Desktop/BlockChain/Ethereum/NCT_Project_Course/NTU_Project/PARK/contracts/Parking.sol",
  "compiler": {
    "name": "solc",
    "version": "0.5.0+commit.1d4f565a.Emscripten.clang"
  },
  "schemaVersion": "3.0.2",
  "updatedAt": "2019-05-16T08:43:21.921Z",
  "devdoc": {
    "methods": {}
  },
  "userdoc": {
    "methods": {}
  }
}